{
  "contractName": "MadridCentral",
  "abi": [
    {
      "constant": true,
      "inputs": [
        {
          "name": "",
          "type": "uint256"
        }
      ],
      "name": "lengths",
      "outputs": [
        {
          "name": "",
          "type": "uint256"
        }
      ],
      "payable": false,
      "stateMutability": "view",
      "type": "function",
      "signature": "0x25e3d69f"
    },
    {
      "constant": true,
      "inputs": [],
      "name": "index",
      "outputs": [
        {
          "name": "",
          "type": "uint256"
        }
      ],
      "payable": false,
      "stateMutability": "view",
      "type": "function",
      "signature": "0x2986c0e5"
    },
    {
      "constant": true,
      "inputs": [],
      "name": "currentDay",
      "outputs": [
        {
          "name": "",
          "type": "uint256"
        }
      ],
      "payable": false,
      "stateMutability": "view",
      "type": "function",
      "signature": "0x5c9302c9"
    },
    {
      "constant": true,
      "inputs": [
        {
          "name": "",
          "type": "uint256"
        }
      ],
      "name": "dayContracts",
      "outputs": [
        {
          "name": "",
          "type": "address"
        }
      ],
      "payable": false,
      "stateMutability": "view",
      "type": "function",
      "signature": "0x887d8e27"
    },
    {
      "constant": true,
      "inputs": [],
      "name": "price",
      "outputs": [
        {
          "name": "",
          "type": "uint256"
        }
      ],
      "payable": false,
      "stateMutability": "view",
      "type": "function",
      "signature": "0xa035b1fe"
    },
    {
      "constant": true,
      "inputs": [
        {
          "name": "",
          "type": "uint256"
        }
      ],
      "name": "pointers",
      "outputs": [
        {
          "name": "",
          "type": "uint256"
        }
      ],
      "payable": false,
      "stateMutability": "view",
      "type": "function",
      "signature": "0xb6ab43e6"
    },
    {
      "constant": true,
      "inputs": [
        {
          "name": "",
          "type": "uint256"
        }
      ],
      "name": "prices",
      "outputs": [
        {
          "name": "",
          "type": "uint256"
        }
      ],
      "payable": false,
      "stateMutability": "view",
      "type": "function",
      "signature": "0xbc31c1c1"
    },
    {
      "constant": true,
      "inputs": [],
      "name": "currentDayPriceIndex",
      "outputs": [
        {
          "name": "",
          "type": "uint256"
        }
      ],
      "payable": false,
      "stateMutability": "view",
      "type": "function",
      "signature": "0xca710706"
    },
    {
      "constant": true,
      "inputs": [
        {
          "name": "",
          "type": "address"
        }
      ],
      "name": "residents",
      "outputs": [
        {
          "name": "",
          "type": "address"
        }
      ],
      "payable": false,
      "stateMutability": "view",
      "type": "function",
      "signature": "0xe4d65d54"
    },
    {
      "constant": true,
      "inputs": [
        {
          "name": "",
          "type": "uint256"
        }
      ],
      "name": "newResidents",
      "outputs": [
        {
          "name": "new_price",
          "type": "uint256"
        },
        {
          "name": "old_price",
          "type": "uint256"
        },
        {
          "name": "invitations",
          "type": "uint256"
        },
        {
          "name": "addr",
          "type": "address"
        },
        {
          "name": "isNew",
          "type": "bool"
        }
      ],
      "payable": false,
      "stateMutability": "view",
      "type": "function",
      "signature": "0xea2b4ee2"
    },
    {
      "constant": true,
      "inputs": [
        {
          "name": "p",
          "type": "uint256"
        }
      ],
      "name": "getInvitationsForPrice",
      "outputs": [
        {
          "name": "",
          "type": "address[]"
        }
      ],
      "payable": false,
      "stateMutability": "view",
      "type": "function",
      "signature": "0x59318cdc"
    },
    {
      "constant": false,
      "inputs": [
        {
          "name": "initialPrice",
          "type": "uint256"
        },
        {
          "name": "name",
          "type": "string"
        },
        {
          "name": "email",
          "type": "string"
        },
        {
          "name": "code",
          "type": "string"
        },
        {
          "name": "phone",
          "type": "uint256"
        },
        {
          "name": "n_invitations",
          "type": "uint256"
        },
        {
          "name": "addr",
          "type": "address"
        }
      ],
      "name": "addResident",
      "outputs": [],
      "payable": false,
      "stateMutability": "nonpayable",
      "type": "function",
      "signature": "0x08ee83ab"
    },
    {
      "constant": false,
      "inputs": [
        {
          "name": "name",
          "type": "string"
        },
        {
          "name": "email",
          "type": "string"
        },
        {
          "name": "phone",
          "type": "uint256"
        },
        {
          "name": "newPrice",
          "type": "uint256"
        },
        {
          "name": "nInvitations",
          "type": "uint256"
        }
      ],
      "name": "changeResidentData",
      "outputs": [],
      "payable": false,
      "stateMutability": "nonpayable",
      "type": "function",
      "signature": "0xcb030457"
    },
    {
      "constant": true,
      "inputs": [],
      "name": "getResidentAddress",
      "outputs": [
        {
          "name": "",
          "type": "address"
        }
      ],
      "payable": false,
      "stateMutability": "view",
      "type": "function",
      "signature": "0x9584a9fc"
    },
    {
      "constant": true,
      "inputs": [],
      "name": "getTodayAddress",
      "outputs": [
        {
          "name": "",
          "type": "address"
        }
      ],
      "payable": false,
      "stateMutability": "view",
      "type": "function",
      "signature": "0x389f6189"
    },
    {
      "constant": true,
      "inputs": [],
      "name": "residentExists",
      "outputs": [
        {
          "name": "",
          "type": "bool"
        }
      ],
      "payable": false,
      "stateMutability": "view",
      "type": "function",
      "signature": "0xf7e309c5"
    },
    {
      "constant": false,
      "inputs": [],
      "name": "deposit",
      "outputs": [],
      "payable": true,
      "stateMutability": "payable",
      "type": "function",
      "signature": "0xd0e30db0"
    },
    {
      "constant": false,
      "inputs": [],
      "name": "withdraw",
      "outputs": [],
      "payable": false,
      "stateMutability": "nonpayable",
      "type": "function",
      "signature": "0x3ccfd60b"
    },
    {
      "constant": true,
      "inputs": [],
      "name": "getBalance",
      "outputs": [
        {
          "name": "",
          "type": "uint256"
        }
      ],
      "payable": false,
      "stateMutability": "view",
      "type": "function",
      "signature": "0x12065fe0"
    },
    {
      "constant": false,
      "inputs": [
        {
          "name": "day",
          "type": "uint256"
        },
        {
          "name": "matricula",
          "type": "string"
        }
      ],
      "name": "getInvitation",
      "outputs": [],
      "payable": false,
      "stateMutability": "nonpayable",
      "type": "function",
      "signature": "0x85617194"
    },
    {
      "constant": false,
      "inputs": [],
      "name": "newDaySettings",
      "outputs": [],
      "payable": false,
      "stateMutability": "nonpayable",
      "type": "function",
      "signature": "0x1a5a9c00"
    },
    {
      "constant": true,
      "inputs": [
        {
          "name": "day",
          "type": "uint256"
        }
      ],
      "name": "getInvitationFromDay",
      "outputs": [
        {
          "name": "",
          "type": "string"
        }
      ],
      "payable": false,
      "stateMutability": "view",
      "type": "function",
      "signature": "0xd91719be"
    },
    {
      "constant": false,
      "inputs": [
        {
          "name": "day",
          "type": "uint256"
        }
      ],
      "name": "generateNewDay",
      "outputs": [],
      "payable": false,
      "stateMutability": "nonpayable",
      "type": "function",
      "signature": "0x2cc681af"
    }
  ],
  "bytecode": "0x608060405260a0604051908101604052806611c37937e0800066ffffffffffffff168152602001662386f26fc1000066ffffffffffffff16815260200166354a6ba7a1800066ffffffffffffff16815260200166470de4df82000066ffffffffffffff1681526020016658d15e1762800066ffffffffffffff1681525060039060056200008e929190620000ad565b5060006006556000601155348015620000a657600080fd5b5062000132565b828054828255906000526020600020908101928215620000f7579160200282015b82811115620000f6578251829066ffffffffffffff16905591602001919060010190620000ce565b5b5090506200010691906200010a565b5090565b6200012f91905b808211156200012b57600081600090555060010162000111565b5090565b90565b614bdb80620001426000396000f3fe6080604052600436106200014b576000357c0100000000000000000000000000000000000000000000000000000000900463ffffffff16806308ee83ab146200015057806312065fe014620003915780631a5a9c0014620003bf57806325e3d69f14620003d95780632986c0e5146200042c5780632cc681af146200045a578063389f618914620004995780633ccfd60b14620004f357806359318cdc146200050d5780635c9302c914620005a35780638561719414620005d1578063887d8e2714620006aa5780639584a9fc1462000729578063a035b1fe1462000783578063b6ab43e614620007b1578063bc31c1c11462000804578063ca7107061462000857578063cb0304571462000885578063d0e30db01462000a0c578063d91719be1462000a18578063e4d65d541462000ad3578063ea2b4ee21462000b68578063f7e309c51462000c07575b600080fd5b3480156200015d57600080fd5b506200038f600480360360e08110156200017657600080fd5b8101908080359060200190929190803590602001906401000000008111156200019e57600080fd5b820183602082011115620001b157600080fd5b80359060200191846001830284011164010000000083111715620001d457600080fd5b91908080601f016020809104026020016040519081016040528093929190818152602001838380828437600081840152601f19601f820116905080830192505050505050509192919290803590602001906401000000008111156200023857600080fd5b8201836020820111156200024b57600080fd5b803590602001918460018302840111640100000000831117156200026e57600080fd5b91908080601f016020809104026020016040519081016040528093929190818152602001838380828437600081840152601f19601f82011690508083019250505050505050919291929080359060200190640100000000811115620002d257600080fd5b820183602082011115620002e557600080fd5b803590602001918460018302840111640100000000831117156200030857600080fd5b91908080601f016020809104026020016040519081016040528093929190818152602001838380828437600081840152601f19601f8201169050808301925050505050505091929192908035906020019092919080359060200190929190803573ffffffffffffffffffffffffffffffffffffffff16906020019092919050505062000c39565b005b3480156200039e57600080fd5b50620003a962001060565b6040518082815260200191505060405180910390f35b348015620003cc57600080fd5b50620003d7620010a7565b005b348015620003e657600080fd5b506200041660048036036020811015620003ff57600080fd5b81019080803590602001909291905050506200113c565b6040518082815260200191505060405180910390f35b3480156200043957600080fd5b506200044462001157565b6040518082815260200191505060405180910390f35b3480156200046757600080fd5b5062000497600480360360208110156200048057600080fd5b81019080803590602001909291905050506200115d565b005b348015620004a657600080fd5b50620004b162001896565b604051808273ffffffffffffffffffffffffffffffffffffffff1673ffffffffffffffffffffffffffffffffffffffff16815260200191505060405180910390f35b3480156200050057600080fd5b506200050b620018d3565b005b3480156200051a57600080fd5b506200054a600480360360208110156200053357600080fd5b8101908080359060200190929190505050620019a1565b6040518080602001828103825283818151815260200191508051906020019060200280838360005b838110156200058f57808201518184015260208101905062000572565b505050509050019250505060405180910390f35b348015620005b057600080fd5b50620005bb62001a44565b6040518082815260200191505060405180910390f35b348015620005de57600080fd5b50620006a860048036036040811015620005f757600080fd5b8101908080359060200190929190803590602001906401000000008111156200061f57600080fd5b8201836020820111156200063257600080fd5b803590602001918460018302840111640100000000831117156200065557600080fd5b91908080601f016020809104026020016040519081016040528093929190818152602001838380828437600081840152601f19601f82011690508083019250505050505050919291929050505062001a4a565b005b348015620006b757600080fd5b50620006e760048036036020811015620006d057600080fd5b810190808035906020019092919050505062002288565b604051808273ffffffffffffffffffffffffffffffffffffffff1673ffffffffffffffffffffffffffffffffffffffff16815260200191505060405180910390f35b3480156200073657600080fd5b5062000741620022bb565b604051808273ffffffffffffffffffffffffffffffffffffffff1673ffffffffffffffffffffffffffffffffffffffff16815260200191505060405180910390f35b3480156200079057600080fd5b506200079b62002321565b6040518082815260200191505060405180910390f35b348015620007be57600080fd5b50620007ee60048036036020811015620007d757600080fd5b810190808035906020019092919050505062002327565b6040518082815260200191505060405180910390f35b3480156200081157600080fd5b5062000841600480360360208110156200082a57600080fd5b810190808035906020019092919050505062002342565b6040518082815260200191505060405180910390f35b3480156200086457600080fd5b506200086f62002366565b6040518082815260200191505060405180910390f35b3480156200089257600080fd5b5062000a0a600480360360a0811015620008ab57600080fd5b8101908080359060200190640100000000811115620008c957600080fd5b820183602082011115620008dc57600080fd5b80359060200191846001830284011164010000000083111715620008ff57600080fd5b91908080601f016020809104026020016040519081016040528093929190818152602001838380828437600081840152601f19601f820116905080830192505050505050509192919290803590602001906401000000008111156200096357600080fd5b8201836020820111156200097657600080fd5b803590602001918460018302840111640100000000831117156200099957600080fd5b91908080601f016020809104026020016040519081016040528093929190818152602001838380828437600081840152601f19601f8201169050808301925050505050505091929192908035906020019092919080359060200190929190803590602001909291905050506200236c565b005b62000a1662002a37565b005b34801562000a2557600080fd5b5062000a556004803603602081101562000a3e57600080fd5b810190808035906020019092919050505062002a86565b6040518080602001828103825283818151815260200191508051906020019080838360005b8381101562000a9757808201518184015260208101905062000a7a565b50505050905090810190601f16801562000ac55780820380516001836020036101000a031916815260200191505b509250505060405180910390f35b34801562000ae057600080fd5b5062000b266004803603602081101562000af957600080fd5b81019080803573ffffffffffffffffffffffffffffffffffffffff16906020019092919050505062002bf8565b604051808273ffffffffffffffffffffffffffffffffffffffff1673ffffffffffffffffffffffffffffffffffffffff16815260200191505060405180910390f35b34801562000b7557600080fd5b5062000ba56004803603602081101562000b8e57600080fd5b810190808035906020019092919050505062002c2b565b604051808681526020018581526020018481526020018373ffffffffffffffffffffffffffffffffffffffff1673ffffffffffffffffffffffffffffffffffffffff168152602001821515151581526020019550505050505060405180910390f35b34801562000c1457600080fd5b5062000c1f62002c9e565b604051808215151515815260200191505060405180910390f35b600073ffffffffffffffffffffffffffffffffffffffff166000808373ffffffffffffffffffffffffffffffffffffffff1673ffffffffffffffffffffffffffffffffffffffff16815260200190815260200160002060009054906101000a900473ffffffffffffffffffffffffffffffffffffffff1673ffffffffffffffffffffffffffffffffffffffff1614151562000cd357600080fd5b60008782888888888862000ce662003572565b808881526020018773ffffffffffffffffffffffffffffffffffffffff1673ffffffffffffffffffffffffffffffffffffffff168152602001806020018060200180602001868152602001858152602001848103845289818151815260200191508051906020019080838360005b8381101562000d7157808201518184015260208101905062000d54565b50505050905090810190601f16801562000d9f5780820380516001836020036101000a031916815260200191505b50848103835288818151815260200191508051906020019080838360005b8381101562000dda57808201518184015260208101905062000dbd565b50505050905090810190601f16801562000e085780820380516001836020036101000a031916815260200191505b50848103825287818151815260200191508051906020019080838360005b8381101562000e4357808201518184015260208101905062000e26565b50505050905090810190601f16801562000e715780820380516001836020036101000a031916815260200191505b509a5050505050505050505050604051809103906000f08015801562000e9b573d6000803e3d6000fd5b509050806000808473ffffffffffffffffffffffffffffffffffffffff1673ffffffffffffffffffffffffffffffffffffffff16815260200190815260200160002060006101000a81548173ffffffffffffffffffffffffffffffffffffffff021916908373ffffffffffffffffffffffffffffffffffffffff16021790555082601260008373ffffffffffffffffffffffffffffffffffffffff1673ffffffffffffffffffffffffffffffffffffffff16815260200190815260200160002081905550600560a0604051908101604052808a8152602001600081526020018581526020018373ffffffffffffffffffffffffffffffffffffffff168152602001600115158152509080600181540180825580915050906001820390600052602060002090600402016000909192909190915060008201518160000155602082015181600101556040820151816002015560608201518160030160006101000a81548173ffffffffffffffffffffffffffffffffffffffff021916908373ffffffffffffffffffffffffffffffffffffffff16021790555060808201518160030160146101000a81548160ff0219169083151502179055505050505050505050505050565b6000600260003373ffffffffffffffffffffffffffffffffffffffff1673ffffffffffffffffffffffffffffffffffffffff16815260200190815260200160002054905090565b60008090505b6005811015620011215760046000600383815481101515620010cb57fe5b9060005260206000200154815260200190815260200160002080549050600c82600581101515620010f857fe5b0181905550426007826005811015156200110e57fe5b01819055508080600101915050620010ad565b50600060118190555060006013819055506000601481905550565b600c816005811015156200114c57fe5b016000915090505481565b60145481565b806006819055506200116e62003583565b604051809103906000f0801580156200118b573d6000803e3d6000fd5b5060016000600654815260200190815260200160002060006101000a81548173ffffffffffffffffffffffffffffffffffffffff021916908373ffffffffffffffffffffffffffffffffffffffff16021790555060008090505b60058054905081101562001882576005818154811015156200120357fe5b906000526020600020906004020160030160149054906101000a900460ff16156200130757600460006005838154811015156200123c57fe5b90600052602060002090600402016000015481526020019081526020016000206005828154811015156200126c57fe5b906000526020600020906004020160030160009054906101000a900473ffffffffffffffffffffffffffffffffffffffff1690806001815401808255809150509060018203906000526020600020016000909192909190916101000a81548173ffffffffffffffffffffffffffffffffffffffff021916908373ffffffffffffffffffffffffffffffffffffffff1602179055505062001874565b6005818154811015156200131757fe5b9060005260206000209060040201600001546005828154811015156200133957fe5b906000526020600020906004020160010154141515620018735760006005828154811015156200136557fe5b90600052602060002090600402016002015411156200145857600460006005838154811015156200139257fe5b9060005260206000209060040201600001548152602001908152602001600020600582815481101515620013c257fe5b906000526020600020906004020160030160009054906101000a900473ffffffffffffffffffffffffffffffffffffffff1690806001815401808255809150509060018203906000526020600020016000909192909190916101000a81548173ffffffffffffffffffffffffffffffffffffffff021916908373ffffffffffffffffffffffffffffffffffffffff160217905550505b60008090505b600460006005848154811015156200147257fe5b9060005260206000209060040201600101548152602001908152602001600020805490508110156200187157600582815481101515620014ae57fe5b906000526020600020906004020160030160009054906101000a900473ffffffffffffffffffffffffffffffffffffffff1673ffffffffffffffffffffffffffffffffffffffff16600460006005858154811015156200150a57fe5b9060005260206000209060040201600101548152602001908152602001600020828154811015156200153857fe5b9060005260206000200160009054906101000a900473ffffffffffffffffffffffffffffffffffffffff1673ffffffffffffffffffffffffffffffffffffffff16141562001863576000600460006005858154811015156200159657fe5b906000526020600020906004020160010154815260200190815260200160002082815481101515620015c457fe5b9060005260206000200160009054906101000a900473ffffffffffffffffffffffffffffffffffffffff169050600460006005858154811015156200160557fe5b90600052602060002090600402016001015481526020019081526020016000206001600460006005878154811015156200163b57fe5b906000526020600020906004020160010154815260200190815260200160002080549050038154811015156200166d57fe5b9060005260206000200160009054906101000a900473ffffffffffffffffffffffffffffffffffffffff1660046000600586815481101515620016ac57fe5b906000526020600020906004020160010154815260200190815260200160002083815481101515620016da57fe5b9060005260206000200160006101000a81548173ffffffffffffffffffffffffffffffffffffffff021916908373ffffffffffffffffffffffffffffffffffffffff16021790555080600460006005868154811015156200173757fe5b90600052602060002090600402016001015481526020019081526020016000206001600460006005888154811015156200176d57fe5b906000526020600020906004020160010154815260200190815260200160002080549050038154811015156200179f57fe5b9060005260206000200160006101000a81548173ffffffffffffffffffffffffffffffffffffffff021916908373ffffffffffffffffffffffffffffffffffffffff16021790555060046000600585815481101515620017fb57fe5b906000526020600020906004020160010154815260200190815260200160002080548015156200182757fe5b6001900381819060005260206000200160006101000a81549073ffffffffffffffffffffffffffffffffffffffff021916905590555062001871565b80806001019150506200145e565b505b5b8080600101915050620011e5565b506005600062001893919062003594565b50565b600060016000600654815260200190815260200160002060009054906101000a900473ffffffffffffffffffffffffffffffffffffffff16905090565b3373ffffffffffffffffffffffffffffffffffffffff166108fc600260003373ffffffffffffffffffffffffffffffffffffffff1673ffffffffffffffffffffffffffffffffffffffff168152602001908152602001600020549081150290604051600060405180830381858888f1935050505015801562001959573d6000803e3d6000fd5b506000600260003373ffffffffffffffffffffffffffffffffffffffff1673ffffffffffffffffffffffffffffffffffffffff16815260200190815260200160002081905550565b60606004600083815260200190815260200160002080548060200260200160405190810160405280929190818152602001828054801562001a3857602002820191906000526020600020905b8160009054906101000a900473ffffffffffffffffffffffffffffffffffffffff1673ffffffffffffffffffffffffffffffffffffffff1681526020019060010190808311620019ed575b50505050509050919050565b60065481565b6003600481548110151562001a5b57fe5b9060005260206000200154600260003373ffffffffffffffffffffffffffffffffffffffff1673ffffffffffffffffffffffffffffffffffffffff168152602001908152602001600020541015151562001b69576040517f08c379a00000000000000000000000000000000000000000000000000000000081526004018080602001828103825260438152602001807f446562657320646973706f6e65722064656c2073616c646f207375666963696581526020017f6e7465207061726120706167617220656c2070726563696f206dc3a17320636181526020017f726f2e000000000000000000000000000000000000000000000000000000000081525060600191505060405180910390fd5b60065482141562001ef45762001b7e62002d45565b1562001e5a57600060046000600360135481548110151562001b9c57fe5b9060005260206000200154815260200190815260200160002060145481548110151562001bc557fe5b9060005260206000200160009054906101000a900473ffffffffffffffffffffffffffffffffffffffff16905060016000600654815260200190815260200160002060009054906101000a900473ffffffffffffffffffffffffffffffffffffffff1673ffffffffffffffffffffffffffffffffffffffff166391216ae23384846040518463ffffffff167c0100000000000000000000000000000000000000000000000000000000028152600401808473ffffffffffffffffffffffffffffffffffffffff1673ffffffffffffffffffffffffffffffffffffffff168152602001806020018373ffffffffffffffffffffffffffffffffffffffff1673ffffffffffffffffffffffffffffffffffffffff168152602001828103825284818151815260200191508051906020019080838360005b8381101562001d1757808201518184015260208101905062001cfa565b50505050905090810190601f16801562001d455780820380516001836020036101000a031916815260200191505b50945050505050600060405180830381600087803b15801562001d6757600080fd5b505af115801562001d7c573d6000803e3d6000fd5b5050505062001d8b8162003247565b62001e53338273ffffffffffffffffffffffffffffffffffffffff1663f6783a9f6040518163ffffffff167c010000000000000000000000000000000000000000000000000000000002815260040160206040518083038186803b15801562001df357600080fd5b505afa15801562001e08573d6000803e3d6000fd5b505050506040513d602081101562001e1f57600080fd5b8101908080519060200190929190505050600360135481548110151562001e4257fe5b90600052602060002001546200341b565b5062001eee565b6040517f08c379a00000000000000000000000000000000000000000000000000000000081526004018080602001828103825260288152602001807f4e6f20686179206e696e67756e207265736964656e746520636f6e20696e766981526020017f746163696f6e657300000000000000000000000000000000000000000000000081525060400191505060405180910390fd5b62002284565b62001eff826200115d565b62001f09620010a7565b62001f1362002d45565b15620021ef57600060046000600360135481548110151562001f3157fe5b9060005260206000200154815260200190815260200160002060145481548110151562001f5a57fe5b9060005260206000200160009054906101000a900473ffffffffffffffffffffffffffffffffffffffff16905060016000600654815260200190815260200160002060009054906101000a900473ffffffffffffffffffffffffffffffffffffffff1673ffffffffffffffffffffffffffffffffffffffff166391216ae23384846040518463ffffffff167c0100000000000000000000000000000000000000000000000000000000028152600401808473ffffffffffffffffffffffffffffffffffffffff1673ffffffffffffffffffffffffffffffffffffffff168152602001806020018373ffffffffffffffffffffffffffffffffffffffff1673ffffffffffffffffffffffffffffffffffffffff168152602001828103825284818151815260200191508051906020019080838360005b83811015620020ac5780820151818401526020810190506200208f565b50505050905090810190601f168015620020da5780820380516001836020036101000a031916815260200191505b50945050505050600060405180830381600087803b158015620020fc57600080fd5b505af115801562002111573d6000803e3d6000fd5b50505050620021208162003247565b620021e8338273ffffffffffffffffffffffffffffffffffffffff1663f6783a9f6040518163ffffffff167c010000000000000000000000000000000000000000000000000000000002815260040160206040518083038186803b1580156200218857600080fd5b505afa1580156200219d573d6000803e3d6000fd5b505050506040513d6020811015620021b457600080fd5b81019080805190602001909291905050506003601354815481101515620021d757fe5b90600052602060002001546200341b565b5062002283565b6040517f08c379a00000000000000000000000000000000000000000000000000000000081526004018080602001828103825260348152602001807f4e6f20686179206e696e67756e207265736964656e746520636f6e20696e766981526020017f746163696f6e65732028646961206e7565766f2900000000000000000000000081525060400191505060405180910390fd5b5b5050565b60016020528060005260406000206000915054906101000a900473ffffffffffffffffffffffffffffffffffffffff1681565b60008060003373ffffffffffffffffffffffffffffffffffffffff1673ffffffffffffffffffffffffffffffffffffffff16815260200190815260200160002060009054906101000a900473ffffffffffffffffffffffffffffffffffffffff16905090565b60135481565b6007816005811015156200233757fe5b016000915090505481565b6003818154811015156200235257fe5b906000526020600020016000915090505481565b60115481565b60008060003373ffffffffffffffffffffffffffffffffffffffff1673ffffffffffffffffffffffffffffffffffffffff16815260200190815260200160002060009054906101000a900473ffffffffffffffffffffffffffffffffffffffff1690508073ffffffffffffffffffffffffffffffffffffffff1663ec07c2d187836040518363ffffffff167c010000000000000000000000000000000000000000000000000000000002815260040180806020018373ffffffffffffffffffffffffffffffffffffffff1673ffffffffffffffffffffffffffffffffffffffff168152602001828103825284818151815260200191508051906020019080838360005b838110156200248c5780820151818401526020810190506200246f565b50505050905090810190601f168015620024ba5780820380516001836020036101000a031916815260200191505b509350505050600060405180830381600087803b158015620024db57600080fd5b505af1158015620024f0573d6000803e3d6000fd5b505050508073ffffffffffffffffffffffffffffffffffffffff1663cdf2ac3486836040518363ffffffff167c010000000000000000000000000000000000000000000000000000000002815260040180806020018373ffffffffffffffffffffffffffffffffffffffff1673ffffffffffffffffffffffffffffffffffffffff168152602001828103825284818151815260200191508051906020019080838360005b83811015620025b157808201518184015260208101905062002594565b50505050905090810190601f168015620025df5780820380516001836020036101000a031916815260200191505b509350505050600060405180830381600087803b1580156200260057600080fd5b505af115801562002615573d6000803e3d6000fd5b505050508073ffffffffffffffffffffffffffffffffffffffff1663cae25dcd85836040518363ffffffff167c0100000000000000000000000000000000000000000000000000000000028152600401808381526020018273ffffffffffffffffffffffffffffffffffffffff1673ffffffffffffffffffffffffffffffffffffffff16815260200192505050600060405180830381600087803b158015620026bd57600080fd5b505af1158015620026d2573d6000803e3d6000fd5b5050505060008173ffffffffffffffffffffffffffffffffffffffff166398d5fdca6040518163ffffffff167c010000000000000000000000000000000000000000000000000000000002815260040160206040518083038186803b1580156200273b57600080fd5b505afa15801562002750573d6000803e3d6000fd5b505050506040513d60208110156200276757600080fd5b810190808051906020019092919050505090508173ffffffffffffffffffffffffffffffffffffffff1663485f476785846040518363ffffffff167c0100000000000000000000000000000000000000000000000000000000028152600401808381526020018273ffffffffffffffffffffffffffffffffffffffff1673ffffffffffffffffffffffffffffffffffffffff16815260200192505050600060405180830381600087803b1580156200281e57600080fd5b505af115801562002833573d6000803e3d6000fd5b505050508173ffffffffffffffffffffffffffffffffffffffff166347ab6d4b84846040518363ffffffff167c0100000000000000000000000000000000000000000000000000000000028152600401808381526020018273ffffffffffffffffffffffffffffffffffffffff1673ffffffffffffffffffffffffffffffffffffffff16815260200192505050600060405180830381600087803b158015620028db57600080fd5b505af1158015620028f0573d6000803e3d6000fd5b5050505082601260008473ffffffffffffffffffffffffffffffffffffffff1673ffffffffffffffffffffffffffffffffffffffff16815260200190815260200160002081905550600560a0604051908101604052808681526020018381526020018581526020018473ffffffffffffffffffffffffffffffffffffffff168152602001600015158152509080600181540180825580915050906001820390600052602060002090600402016000909192909190915060008201518160000155602082015181600101556040820151816002015560608201518160030160006101000a81548173ffffffffffffffffffffffffffffffffffffffff021916908373ffffffffffffffffffffffffffffffffffffffff16021790555060808201518160030160146101000a81548160ff02191690831515021790555050505050505050505050565b34600260003373ffffffffffffffffffffffffffffffffffffffff1673ffffffffffffffffffffffffffffffffffffffff16815260200190815260200160002060008282540192505081905550565b606060006001600084815260200190815260200160002060009054906101000a900473ffffffffffffffffffffffffffffffffffffffff1690508073ffffffffffffffffffffffffffffffffffffffff16637b525318336040518263ffffffff167c0100000000000000000000000000000000000000000000000000000000028152600401808273ffffffffffffffffffffffffffffffffffffffff1673ffffffffffffffffffffffffffffffffffffffff16815260200191505060006040518083038186803b15801562002b5a57600080fd5b505afa15801562002b6f573d6000803e3d6000fd5b505050506040513d6000823e3d601f19601f82011682018060405250602081101562002b9a57600080fd5b81019080805164010000000081111562002bb357600080fd5b8281019050602081018481111562002bca57600080fd5b815185600182028301116401000000008211171562002be857600080fd5b5050929190505050915050919050565b60006020528060005260406000206000915054906101000a900473ffffffffffffffffffffffffffffffffffffffff1681565b60058181548110151562002c3b57fe5b90600052602060002090600402016000915090508060000154908060010154908060020154908060030160009054906101000a900473ffffffffffffffffffffffffffffffffffffffff16908060030160149054906101000a900460ff16905085565b60008073ffffffffffffffffffffffffffffffffffffffff166000803373ffffffffffffffffffffffffffffffffffffffff1673ffffffffffffffffffffffffffffffffffffffff16815260200190815260200160002060009054906101000a900473ffffffffffffffffffffffffffffffffffffffff1673ffffffffffffffffffffffffffffffffffffffff16141562002d3d576000905062002d42565b600190505b90565b60008060115490505b60058110156200323e576000600c8260058110151562002d6a57fe5b015411156200322557600060078260058110151562002d8557fe5b015490505b60078260058110151562002d9a57fe5b01546004600060038581548110151562002db057fe5b9060005260206000200154815260200190815260200160002080549050018110156200321e5760006004600060038581548110151562002dec57fe5b906000526020600020015481526020019081526020016000206004600060038681548110151562002e1957fe5b90600052602060002001548152602001908152602001600020805490508381151562002e4157fe5b0681548110151562002e4f57fe5b9060005260206000200160009054906101000a900473ffffffffffffffffffffffffffffffffffffffff1690506001806000600654815260200190815260200160002060009054906101000a900473ffffffffffffffffffffffffffffffffffffffff1673ffffffffffffffffffffffffffffffffffffffff1663f010df7c836040518263ffffffff167c0100000000000000000000000000000000000000000000000000000000028152600401808273ffffffffffffffffffffffffffffffffffffffff1673ffffffffffffffffffffffffffffffffffffffff16815260200191505060206040518083038186803b15801562002f4c57600080fd5b505afa15801562002f61573d6000803e3d6000fd5b505050506040513d602081101562002f7857600080fd5b8101908080519060200190929190505050601260008473ffffffffffffffffffffffffffffffffffffffff1673ffffffffffffffffffffffffffffffffffffffff168152602001908152602001600020540311156200302857826013819055506004600060038581548110151562002fec57fe5b9060005260206000200154815260200190815260200160002080549050828115156200301457fe5b066014819055506001935050505062003244565b6001806000600654815260200190815260200160002060009054906101000a900473ffffffffffffffffffffffffffffffffffffffff1673ffffffffffffffffffffffffffffffffffffffff1663f010df7c836040518263ffffffff167c0100000000000000000000000000000000000000000000000000000000028152600401808273ffffffffffffffffffffffffffffffffffffffff1673ffffffffffffffffffffffffffffffffffffffff16815260200191505060206040518083038186803b158015620030f857600080fd5b505afa1580156200310d573d6000803e3d6000fd5b505050506040513d60208110156200312457600080fd5b8101908080519060200190929190505050601260008473ffffffffffffffffffffffffffffffffffffffff1673ffffffffffffffffffffffffffffffffffffffff168152602001908152602001600020540314156200320f5782601381905550600460006003858154811015156200319857fe5b906000526020600020015481526020019081526020016000208054905082811515620031c057fe5b06601481905550600c83600581101515620031d757fe5b01600081548092919060019003919050555060018201600784600581101515620031fd57fe5b01819055506001935050505062003244565b50808060010191505062002d8a565b5062003230565b600181016011819055505b808060010191505062002d4e565b50600090505b90565b600060016000600654815260200190815260200160002060009054906101000a900473ffffffffffffffffffffffffffffffffffffffff1690508073ffffffffffffffffffffffffffffffffffffffff1663fd6373368360018473ffffffffffffffffffffffffffffffffffffffff1663f010df7c876040518263ffffffff167c0100000000000000000000000000000000000000000000000000000000028152600401808273ffffffffffffffffffffffffffffffffffffffff1673ffffffffffffffffffffffffffffffffffffffff16815260200191505060206040518083038186803b1580156200333a57600080fd5b505afa1580156200334f573d6000803e3d6000fd5b505050506040513d60208110156200336657600080fd5b8101908080519060200190929190505050016040518363ffffffff167c0100000000000000000000000000000000000000000000000000000000028152600401808373ffffffffffffffffffffffffffffffffffffffff1673ffffffffffffffffffffffffffffffffffffffff16815260200182815260200192505050600060405180830381600087803b158015620033fe57600080fd5b505af115801562003413573d6000803e3d6000fd5b505050505050565b80600260008573ffffffffffffffffffffffffffffffffffffffff1673ffffffffffffffffffffffffffffffffffffffff1681526020019081526020016000205410151515620034d3576040517f08c379a00000000000000000000000000000000000000000000000000000000081526004018080602001828103825260128152602001807f53616c646f20696e737566696369656e7465000000000000000000000000000081525060200191505060405180910390fd5b80600260008573ffffffffffffffffffffffffffffffffffffffff1673ffffffffffffffffffffffffffffffffffffffff1681526020019081526020016000206000828254039250508190555080600260008473ffffffffffffffffffffffffffffffffffffffff1673ffffffffffffffffffffffffffffffffffffffff16815260200190815260200160002060008282540192505081905550505050565b604051610d69806200363083390190565b604051610817806200439983390190565b5080546000825560040290600052602060002090810190620035b79190620035ba565b50565b6200362c91905b808211156200362857600080820160009055600182016000905560028201600090556003820160006101000a81549073ffffffffffffffffffffffffffffffffffffffff02191690556003820160146101000a81549060ff021916905550600401620035c1565b5090565b9056fe60806040523480156200001157600080fd5b5060405162000d6938038062000d69833981018060405260e08110156200003757600080fd5b81019080805190602001909291908051906020019092919080516401000000008111156200006457600080fd5b828101905060208101848111156200007b57600080fd5b81518560018202830111640100000000821117156200009957600080fd5b50509291906020018051640100000000811115620000b657600080fd5b82810190506020810184811115620000cd57600080fd5b8151856001820283011164010000000082111715620000eb57600080fd5b505092919060200180516401000000008111156200010857600080fd5b828101905060208101848111156200011f57600080fd5b81518560018202830111640100000000821117156200013d57600080fd5b505092919060200180519060200190929190805190602001909291905050508460009080519060200190620001749291906200020a565b5083600190805190602001906200018d9291906200020a565b508260029080519060200190620001a69291906200020a565b5081600381905550806005819055508660048190555085600660006101000a81548173ffffffffffffffffffffffffffffffffffffffff021916908373ffffffffffffffffffffffffffffffffffffffff16021790555050505050505050620002b9565b828054600181600116156101000203166002900490600052602060002090601f016020900481019282601f106200024d57805160ff19168380011785556200027e565b828001600101855582156200027e579182015b828111156200027d57825182559160200191906001019062000260565b5b5090506200028d919062000291565b5090565b620002b691905b80821115620002b257600081600090555060010162000298565b5090565b90565b610aa080620002c96000396000f3fe6080604052600436106100ba576000357c0100000000000000000000000000000000000000000000000000000000900463ffffffff16806316845714146100bf57806317d7de7c146100ea57806347ab6d4b1461017a578063485f4767146101d55780637e79e8ba146102305780638863bab0146102c057806398d5fdca146102eb578063cae25dcd14610316578063cdf2ac3414610371578063ea87963414610459578063ec07c2d1146104e9578063f6783a9f146105d1575b600080fd5b3480156100cb57600080fd5b506100d4610628565b6040518082815260200191505060405180910390f35b3480156100f657600080fd5b506100ff610632565b6040518080602001828103825283818151815260200191508051906020019080838360005b8381101561013f578082015181840152602081019050610124565b50505050905090810190601f16801561016c5780820380516001836020036101000a031916815260200191505b509250505060405180910390f35b34801561018657600080fd5b506101d36004803603604081101561019d57600080fd5b8101908080359060200190929190803573ffffffffffffffffffffffffffffffffffffffff1690602001909291905050506106d4565b005b3480156101e157600080fd5b5061022e600480360360408110156101f857600080fd5b8101908080359060200190929190803573ffffffffffffffffffffffffffffffffffffffff169060200190929190505050610719565b005b34801561023c57600080fd5b5061024561075e565b6040518080602001828103825283818151815260200191508051906020019080838360005b8381101561028557808201518184015260208101905061026a565b50505050905090810190601f1680156102b25780820380516001836020036101000a031916815260200191505b509250505060405180910390f35b3480156102cc57600080fd5b506102d5610800565b6040518082815260200191505060405180910390f35b3480156102f757600080fd5b5061030061080a565b6040518082815260200191505060405180910390f35b34801561032257600080fd5b5061036f6004803603604081101561033957600080fd5b8101908080359060200190929190803573ffffffffffffffffffffffffffffffffffffffff169060200190929190505050610814565b005b34801561037d57600080fd5b506104576004803603604081101561039457600080fd5b81019080803590602001906401000000008111156103b157600080fd5b8201836020820111156103c357600080fd5b803590602001918460018302840111640100000000831117156103e557600080fd5b91908080601f016020809104026020016040519081016040528093929190818152602001838380828437600081840152601f19601f820116905080830192505050505050509192919290803573ffffffffffffffffffffffffffffffffffffffff169060200190929190505050610859565b005b34801561046557600080fd5b5061046e6108ae565b6040518080602001828103825283818151815260200191508051906020019080838360005b838110156104ae578082015181840152602081019050610493565b50505050905090810190601f1680156104db5780820380516001836020036101000a031916815260200191505b509250505060405180910390f35b3480156104f557600080fd5b506105cf6004803603604081101561050c57600080fd5b810190808035906020019064010000000081111561052957600080fd5b82018360208201111561053b57600080fd5b8035906020019184600183028401116401000000008311171561055d57600080fd5b91908080601f016020809104026020016040519081016040528093929190818152602001838380828437600081840152601f19601f820116905080830192505050505050509192919290803573ffffffffffffffffffffffffffffffffffffffff169060200190929190505050610950565b005b3480156105dd57600080fd5b506105e66109a5565b604051808273ffffffffffffffffffffffffffffffffffffffff1673ffffffffffffffffffffffffffffffffffffffff16815260200191505060405180910390f35b6000600554905090565b606060008054600181600116156101000203166002900480601f0160208091040260200160405190810160405280929190818152602001828054600181600116156101000203166002900480156106ca5780601f1061069f576101008083540402835291602001916106ca565b820191906000526020600020905b8154815290600101906020018083116106ad57829003601f168201915b5050505050905090565b3073ffffffffffffffffffffffffffffffffffffffff168173ffffffffffffffffffffffffffffffffffffffff1614151561070e57600080fd5b816005819055505050565b3073ffffffffffffffffffffffffffffffffffffffff168173ffffffffffffffffffffffffffffffffffffffff1614151561075357600080fd5b816004819055505050565b606060018054600181600116156101000203166002900480601f0160208091040260200160405190810160405280929190818152602001828054600181600116156101000203166002900480156107f65780601f106107cb576101008083540402835291602001916107f6565b820191906000526020600020905b8154815290600101906020018083116107d957829003601f168201915b5050505050905090565b6000600354905090565b6000600454905090565b3073ffffffffffffffffffffffffffffffffffffffff168173ffffffffffffffffffffffffffffffffffffffff1614151561084e57600080fd5b816003819055505050565b3073ffffffffffffffffffffffffffffffffffffffff168173ffffffffffffffffffffffffffffffffffffffff1614151561089357600080fd5b81600190805190602001906108a99291906109cf565b505050565b606060028054600181600116156101000203166002900480601f0160208091040260200160405190810160405280929190818152602001828054600181600116156101000203166002900480156109465780601f1061091b57610100808354040283529160200191610946565b820191906000526020600020905b81548152906001019060200180831161092957829003601f168201915b5050505050905090565b3073ffffffffffffffffffffffffffffffffffffffff168173ffffffffffffffffffffffffffffffffffffffff1614151561098a57600080fd5b81600090805190602001906109a09291906109cf565b505050565b6000600660009054906101000a900473ffffffffffffffffffffffffffffffffffffffff16905090565b828054600181600116156101000203166002900490600052602060002090601f016020900481019282601f10610a1057805160ff1916838001178555610a3e565b82800160010185558215610a3e579182015b82811115610a3d578251825591602001919060010190610a22565b5b509050610a4b9190610a4f565b5090565b610a7191905b80821115610a6d576000816000905550600101610a55565b5090565b9056fea165627a7a723058206d3ce3568f8a560c0ffe98548f348294e88eae2679fe5186dedcf14530e032c80029608060405234801561001057600080fd5b506107f7806100206000396000f3fe60806040526004361061006d576000357c0100000000000000000000000000000000000000000000000000000000900463ffffffff16806358f43f76146100725780637b5253181461016f57806391216ae214610239578063f010df7c14610341578063fd637336146103a6575b600080fd5b34801561007e57600080fd5b506100c16004803603602081101561009557600080fd5b81019080803573ffffffffffffffffffffffffffffffffffffffff169060200190929190505050610401565b604051808373ffffffffffffffffffffffffffffffffffffffff1673ffffffffffffffffffffffffffffffffffffffff16815260200180602001828103825283818151815260200191508051906020019080838360005b83811015610133578082015181840152602081019050610118565b50505050905090810190601f1680156101605780820380516001836020036101000a031916815260200191505b50935050505060405180910390f35b34801561017b57600080fd5b506101be6004803603602081101561019257600080fd5b81019080803573ffffffffffffffffffffffffffffffffffffffff1690602001909291905050506104dd565b6040518080602001828103825283818151815260200191508051906020019080838360005b838110156101fe5780820151818401526020810190506101e3565b50505050905090810190601f16801561022b5780820380516001836020036101000a031916815260200191505b509250505060405180910390f35b34801561024557600080fd5b5061033f6004803603606081101561025c57600080fd5b81019080803573ffffffffffffffffffffffffffffffffffffffff1690602001909291908035906020019064010000000081111561029957600080fd5b8201836020820111156102ab57600080fd5b803590602001918460018302840111640100000000831117156102cd57600080fd5b91908080601f016020809104026020016040519081016040528093929190818152602001838380828437600081840152601f19601f820116905080830192505050505050509192919290803573ffffffffffffffffffffffffffffffffffffffff1690602001909291905050506105c1565b005b34801561034d57600080fd5b506103906004803603602081101561036457600080fd5b81019080803573ffffffffffffffffffffffffffffffffffffffff169060200190929190505050610697565b6040518082815260200191505060405180910390f35b3480156103b257600080fd5b506103ff600480360360408110156103c957600080fd5b81019080803573ffffffffffffffffffffffffffffffffffffffff169060200190929190803590602001909291905050506106df565b005b60016020528060005260406000206000915090508060000160009054906101000a900473ffffffffffffffffffffffffffffffffffffffff1690806001018054600181600116156101000203166002900480601f0160208091040260200160405190810160405280929190818152602001828054600181600116156101000203166002900480156104d35780601f106104a8576101008083540402835291602001916104d3565b820191906000526020600020905b8154815290600101906020018083116104b657829003601f168201915b5050505050905082565b6060600160008373ffffffffffffffffffffffffffffffffffffffff1673ffffffffffffffffffffffffffffffffffffffff1681526020019081526020016000206001018054600181600116156101000203166002900480601f0160208091040260200160405190810160405280929190818152602001828054600181600116156101000203166002900480156105b55780601f1061058a576101008083540402835291602001916105b5565b820191906000526020600020905b81548152906001019060200180831161059857829003601f168201915b50505050509050919050565b60408051908101604052808273ffffffffffffffffffffffffffffffffffffffff16815260200183815250600160008573ffffffffffffffffffffffffffffffffffffffff1673ffffffffffffffffffffffffffffffffffffffff16815260200190815260200160002060008201518160000160006101000a81548173ffffffffffffffffffffffffffffffffffffffff021916908373ffffffffffffffffffffffffffffffffffffffff160217905550602082015181600101908051906020019061068e929190610726565b50905050505050565b60008060008373ffffffffffffffffffffffffffffffffffffffff1673ffffffffffffffffffffffffffffffffffffffff168152602001908152602001600020549050919050565b806000808473ffffffffffffffffffffffffffffffffffffffff1673ffffffffffffffffffffffffffffffffffffffff168152602001908152602001600020819055505050565b828054600181600116156101000203166002900490600052602060002090601f016020900481019282601f1061076757805160ff1916838001178555610795565b82800160010185558215610795579182015b82811115610794578251825591602001919060010190610779565b5b5090506107a291906107a6565b5090565b6107c891905b808211156107c45760008160009055506001016107ac565b5090565b9056fea165627a7a72305820c16d29bd6915c899726a703c5d71039b5e87dffc82531aa73d7be1e736c026f00029a165627a7a723058206dbb35caf8f5e18a3c1cd6a7863345dd861157ac44280a23b86a6819fc1d79610029",
  "source": "pragma solidity >=0.4.17 <=0.6.0;\n\ncontract MadridCentral {\n    \n    struct NewResident {\n        uint new_price;\n        uint old_price;\n        uint invitations;\n        address addr;\n        bool isNew;\n    }\n    \n    // permanentes\n    mapping (address => Resident) public residents;\n    mapping (uint => Day) public dayContracts;\n    mapping (address => uint) private balances;\n    uint[] public prices = [5000000000000000, 10000000000000000, 15000000000000000, 20000000000000000, 25000000000000000];\n    \n    // temporales\n    mapping (uint => Resident[]) private invitationsPerPrice;\n    NewResident[] public newResidents;\n    uint public currentDay = 0;\n    uint[5] public pointers;\n    uint[5] public lengths;\n    uint public currentDayPriceIndex = 0;\n    mapping (address => uint) private invitationsPerResident;\n    \n    //solo para el metodo \n    uint public price;\n    uint public index;\n    \n    function getInvitationsForPrice(uint p) public view returns (Resident[] memory){\n        return invitationsPerPrice[p];\n    }\n    \n    function addResident(uint initialPrice, string memory name, string memory email, string memory code, uint phone, uint n_invitations, address addr) public {\n        require(address(residents[addr]) == address(0x0));\n        Resident resident = new Resident(initialPrice, addr, name, email, code, phone, n_invitations );\n        residents[addr] = resident;\n        invitationsPerResident[address(resident)] = n_invitations;\n        newResidents.push(NewResident(initialPrice, 0, n_invitations, address(resident), true));\n    }\n    \n    function changeResidentData(string memory name, string memory email, uint phone, uint newPrice, uint nInvitations) public {\n        Resident resident = residents[msg.sender];\n        resident.setName(name, address(resident));\n        resident.setEmail(email, address(resident));\n        resident.setPhone(phone, address(resident));\n        uint oldPrice = resident.getPrice();\n        resident.setPrice(newPrice, address(resident));\n        resident.setInvitations(nInvitations, address(resident));\n        invitationsPerResident[address(resident)] = nInvitations;\n        newResidents.push(NewResident(newPrice, oldPrice, nInvitations, address(resident), false));\n    }\n\n    function getResidentAddress() public view returns (address) {\n        return address(residents[msg.sender]);\n    }\n\n    function getTodayAddress() public view returns (address) {\n        return address(dayContracts[currentDay]);\n    }\n    \n    function residentExists() public view returns (bool) {\n        if (address(residents[msg.sender]) == address(0x0)) {\n            return false;\n        }\n        return true;\n    }\n    \n    function deposit() public payable {\n        balances[msg.sender] += msg.value;\n    } \n    \n    function withdraw() public {\n        msg.sender.transfer(balances[msg.sender]);\n        balances[msg.sender] = 0;\n    }\n    \n    function getBalance() public view returns (uint) {\n        return balances[msg.sender];\n    }\n    \n    function transfer(address sender, address receiver, uint amount) private {\n        require( balances[sender] >= amount, \"Saldo insuficiente\");\n        balances[sender] -= amount;\n        balances[receiver] += amount;\n    }\n    \n    function spendInvitation(Resident resident) private {\n        Day day_n = dayContracts[currentDay];\n        day_n.setSpentInvitations(address(resident), day_n.getSpentInvitations(address(resident)) + 1);\n    }\n    \n    function lookForResident() private returns (bool) {\n        for (uint i = currentDayPriceIndex; i < 5; i++) {\n            if (lengths[i] > 0) {\n                for (uint j = pointers[i]; j < invitationsPerPrice[prices[i]].length + pointers[i]; j++) {\n                    address residentAddress = address(invitationsPerPrice[prices[i]][j % invitationsPerPrice[prices[i]].length]);\n                    if (invitationsPerResident[residentAddress] - dayContracts[currentDay].getSpentInvitations(residentAddress) > 1) {\n                        price = i;\n                        index = j % invitationsPerPrice[prices[i]].length;\n                        return true;\n                    } else if (invitationsPerResident[residentAddress] - dayContracts[currentDay].getSpentInvitations(residentAddress) == 1) {\n                        price = i;\n                        index = j % invitationsPerPrice[prices[i]].length;\n                        lengths[i]--;\n                        pointers[i] = j + 1;\n                        return true;\n                    }\n                }\n            } else {\n                currentDayPriceIndex = i + 1;\n            }\n        }\n        return false;\n    }\n    \n    function getInvitation(uint day, string memory matricula) public {\n        require(balances[msg.sender] >= prices[4], \"Debes disponer del saldo suficiente para pagar el precio ms caro.\");\n        if (day == currentDay) {\n            if (lookForResident()) {\n                Resident resident = invitationsPerPrice[prices[price]][index];\n                dayContracts[currentDay].newInvitation(msg.sender, matricula, resident);\n                spendInvitation(resident);\n                transfer(msg.sender, resident.getPersonalAddress(), prices[price]);\n            } else {\n                revert(\"No hay ningun residente con invitaciones\");\n            }\n        } else {\n            generateNewDay(day);\n            newDaySettings();\n            if (lookForResident()) {\n                Resident resident = invitationsPerPrice[prices[price]][index];\n                dayContracts[currentDay].newInvitation(msg.sender, matricula, resident);\n                spendInvitation(resident);\n                transfer(msg.sender, resident.getPersonalAddress(), prices[price]);\n            } else {\n                revert(\"No hay ningun residente con invitaciones (dia nuevo)\");\n            }\n        }\n    }\n\n    function newDaySettings() public {\n        for (uint i = 0; i < 5; i++) {\n            lengths[i] = invitationsPerPrice[prices[i]].length;\n            pointers[i] = block.timestamp;\n        }\n        currentDayPriceIndex = 0;\n        price = 0;\n        index = 0;\n    }\n    \n    function getInvitationFromDay(uint day) public view returns (string memory) {\n        Day searchedDay = dayContracts[day];\n        return searchedDay.getTodayInvitation(msg.sender);\n    }\n    \n    function generateNewDay(uint day) public {\n        currentDay = day;\n        dayContracts[currentDay] = new Day();\n        \n        for (uint i = 0; i < newResidents.length; i ++) {\n            if (newResidents[i].isNew) {\n                invitationsPerPrice[newResidents[i].new_price].push(Resident(newResidents[i].addr));\n            } else {\n                if (newResidents[i].old_price != newResidents[i].new_price) {\n                    if (newResidents[i].invitations > 0) {\n                        invitationsPerPrice[newResidents[i].new_price].push(Resident(newResidents[i].addr));\n                    }\n                    for (uint j = 0; j < invitationsPerPrice[newResidents[i].old_price].length; j++) {\n                        if (address(invitationsPerPrice[newResidents[i].old_price][j]) == newResidents[i].addr) {\n                            Resident a = invitationsPerPrice[newResidents[i].old_price][j];\n                            invitationsPerPrice[newResidents[i].old_price][j] = invitationsPerPrice[newResidents[i].old_price][invitationsPerPrice[newResidents[i].old_price].length - 1];\n                            invitationsPerPrice[newResidents[i].old_price][invitationsPerPrice[newResidents[i].old_price].length - 1] = a;\n                            invitationsPerPrice[newResidents[i].old_price].pop();\n                            break;\n                        }\n                    }\n                }\n            }\n        }\n        delete newResidents;\n    }\n}\n\ncontract Day {\n    \n    struct Invitation {\n        Resident resident;\n        string matricula;\n    }\n    //direccion del residente\n    mapping (address => uint) private spentInvitations;\n\n    //direccion personal\n    mapping (address => Invitation) public invitations;\n    \n    function newInvitation(address sender, string memory matricula, Resident resident) public {\n        invitations[sender] = Invitation(resident, matricula);\n    }\n\n    function getSpentInvitations(address addr) public view returns (uint) {\n        return spentInvitations[addr];\n    }\n\n    function getTodayInvitation(address sender) public view returns (string memory) {\n        return invitations[sender].matricula;\n    }\n\n    function setSpentInvitations(address addr, uint inv) public {\n        spentInvitations[addr] = inv;\n    }\n}\n\ncontract Resident {\n    string private name;\n    string private email;\n    string private code;\n    uint private phone;\n    uint private price;\n    uint private n_invitations;\n    address private personalAddress;\n    \n    constructor(uint p, address sender, string memory _name, string memory _email, string memory _code, uint _phone, uint _n_invitations) public {\n        name = _name;\n        email = _email;\n        code = _code;\n        phone = _phone;\n        n_invitations = _n_invitations;\n        price = p;\n        personalAddress = sender;\n    }\n    \n\n    function getPersonalAddress() public view returns (address) {\n        return personalAddress;\n    }\n    \n    function setName(string memory n, address sender) public {\n        require(sender == address(this));\n        name = n;\n    }\n\n    function getName() public view returns (string memory) {\n        return name;\n    }\n    \n    function setEmail(string memory e, address sender) public {\n        require(sender == address(this));\n        email = e;\n    }\n    \n    function getEmail() public view returns (string memory) {\n        return email;\n    }\n    \n    function setPhone(uint p, address sender) public {\n        require(sender == address(this));\n        phone = p;\n    }\n    \n    function getPhone() public view returns (uint) {\n        return phone;\n    }\n    \n    function getCode() public view returns (string memory) {\n        return code;\n    }\n    \n    function getPrice() public view returns (uint) {\n        return price;\n    }\n    \n    function setPrice(uint p, address sender) public {\n        require(sender == address(this));\n        price = p;\n    }\n    \n    function setInvitations(uint i, address sender) public {\n        require(sender == address(this));\n        n_invitations = i;\n    }\n    \n    function getInvitations() public view returns (uint) {\n        return n_invitations;\n    }\n    \n}",
  "sourcePath": "/Users/Rodri/Desktop/MadridCentralApp/contracts/MadridCentral.sol",
  "compiler": {
    "name": "solc",
    "version": "0.5.0+commit.1d4f565a.Emscripten.clang"
  },
  "schemaVersion": "3.0.2",
  "updatedAt": "2019-05-21T21:45:56.015Z",
  "devdoc": {
    "methods": {}
  },
  "userdoc": {
    "methods": {}
  }
}