{
  "contractName": "MadridCentral",
  "abi": [
    {
      "constant": true,
      "inputs": [
        {
          "name": "",
          "type": "uint256"
        }
      ],
      "name": "lengths",
      "outputs": [
        {
          "name": "",
          "type": "uint256"
        }
      ],
      "payable": false,
      "stateMutability": "view",
      "type": "function",
      "signature": "0x25e3d69f"
    },
    {
      "constant": true,
      "inputs": [],
      "name": "index",
      "outputs": [
        {
          "name": "",
          "type": "uint256"
        }
      ],
      "payable": false,
      "stateMutability": "view",
      "type": "function",
      "signature": "0x2986c0e5"
    },
    {
      "constant": true,
      "inputs": [],
      "name": "currentDay",
      "outputs": [
        {
          "name": "",
          "type": "uint256"
        }
      ],
      "payable": false,
      "stateMutability": "view",
      "type": "function",
      "signature": "0x5c9302c9"
    },
    {
      "constant": true,
      "inputs": [
        {
          "name": "",
          "type": "uint256"
        }
      ],
      "name": "dayContracts",
      "outputs": [
        {
          "name": "",
          "type": "address"
        }
      ],
      "payable": false,
      "stateMutability": "view",
      "type": "function",
      "signature": "0x887d8e27"
    },
    {
      "constant": true,
      "inputs": [],
      "name": "price",
      "outputs": [
        {
          "name": "",
          "type": "uint256"
        }
      ],
      "payable": false,
      "stateMutability": "view",
      "type": "function",
      "signature": "0xa035b1fe"
    },
    {
      "constant": true,
      "inputs": [
        {
          "name": "",
          "type": "uint256"
        }
      ],
      "name": "pointers",
      "outputs": [
        {
          "name": "",
          "type": "uint256"
        }
      ],
      "payable": false,
      "stateMutability": "view",
      "type": "function",
      "signature": "0xb6ab43e6"
    },
    {
      "constant": true,
      "inputs": [
        {
          "name": "",
          "type": "uint256"
        }
      ],
      "name": "prices",
      "outputs": [
        {
          "name": "",
          "type": "uint256"
        }
      ],
      "payable": false,
      "stateMutability": "view",
      "type": "function",
      "signature": "0xbc31c1c1"
    },
    {
      "constant": true,
      "inputs": [],
      "name": "currentDayPriceIndex",
      "outputs": [
        {
          "name": "",
          "type": "uint256"
        }
      ],
      "payable": false,
      "stateMutability": "view",
      "type": "function",
      "signature": "0xca710706"
    },
    {
      "constant": true,
      "inputs": [
        {
          "name": "",
          "type": "address"
        }
      ],
      "name": "residents",
      "outputs": [
        {
          "name": "",
          "type": "address"
        }
      ],
      "payable": false,
      "stateMutability": "view",
      "type": "function",
      "signature": "0xe4d65d54"
    },
    {
      "constant": true,
      "inputs": [
        {
          "name": "",
          "type": "uint256"
        }
      ],
      "name": "newResidents",
      "outputs": [
        {
          "name": "new_price",
          "type": "uint256"
        },
        {
          "name": "old_price",
          "type": "uint256"
        },
        {
          "name": "invitations",
          "type": "uint256"
        },
        {
          "name": "addr",
          "type": "address"
        },
        {
          "name": "isNew",
          "type": "bool"
        }
      ],
      "payable": false,
      "stateMutability": "view",
      "type": "function",
      "signature": "0xea2b4ee2"
    },
    {
      "constant": true,
      "inputs": [
        {
          "name": "p",
          "type": "uint256"
        }
      ],
      "name": "getInvitationsForPrice",
      "outputs": [
        {
          "name": "",
          "type": "address[]"
        }
      ],
      "payable": false,
      "stateMutability": "view",
      "type": "function",
      "signature": "0x59318cdc"
    },
    {
      "constant": false,
      "inputs": [
        {
          "name": "initialPrice",
          "type": "uint256"
        },
        {
          "name": "name",
          "type": "string"
        },
        {
          "name": "email",
          "type": "string"
        },
        {
          "name": "code",
          "type": "string"
        },
        {
          "name": "phone",
          "type": "uint256"
        },
        {
          "name": "n_invitations",
          "type": "uint256"
        }
      ],
      "name": "addResident",
      "outputs": [],
      "payable": false,
      "stateMutability": "nonpayable",
      "type": "function",
      "signature": "0x3bf21b65"
    },
    {
      "constant": false,
      "inputs": [
        {
          "name": "name",
          "type": "string"
        },
        {
          "name": "email",
          "type": "string"
        },
        {
          "name": "phone",
          "type": "uint256"
        },
        {
          "name": "newPrice",
          "type": "uint256"
        },
        {
          "name": "nInvitations",
          "type": "uint256"
        }
      ],
      "name": "changeResidentData",
      "outputs": [],
      "payable": false,
      "stateMutability": "nonpayable",
      "type": "function",
      "signature": "0xcb030457"
    },
    {
      "constant": true,
      "inputs": [],
      "name": "getResidentAddress",
      "outputs": [
        {
          "name": "",
          "type": "address"
        }
      ],
      "payable": false,
      "stateMutability": "view",
      "type": "function",
      "signature": "0x9584a9fc"
    },
    {
      "constant": true,
      "inputs": [],
      "name": "getTodayAddress",
      "outputs": [
        {
          "name": "",
          "type": "address"
        }
      ],
      "payable": false,
      "stateMutability": "view",
      "type": "function",
      "signature": "0x389f6189"
    },
    {
      "constant": true,
      "inputs": [],
      "name": "residentExists",
      "outputs": [
        {
          "name": "",
          "type": "bool"
        }
      ],
      "payable": false,
      "stateMutability": "view",
      "type": "function",
      "signature": "0xf7e309c5"
    },
    {
      "constant": false,
      "inputs": [],
      "name": "deposit",
      "outputs": [],
      "payable": true,
      "stateMutability": "payable",
      "type": "function",
      "signature": "0xd0e30db0"
    },
    {
      "constant": false,
      "inputs": [],
      "name": "withdraw",
      "outputs": [],
      "payable": false,
      "stateMutability": "nonpayable",
      "type": "function",
      "signature": "0x3ccfd60b"
    },
    {
      "constant": true,
      "inputs": [],
      "name": "getBalance",
      "outputs": [
        {
          "name": "",
          "type": "uint256"
        }
      ],
      "payable": false,
      "stateMutability": "view",
      "type": "function",
      "signature": "0x12065fe0"
    },
    {
      "constant": false,
      "inputs": [
        {
          "name": "day",
          "type": "uint256"
        },
        {
          "name": "matricula",
          "type": "string"
        }
      ],
      "name": "getInvitation",
      "outputs": [],
      "payable": false,
      "stateMutability": "nonpayable",
      "type": "function",
      "signature": "0x85617194"
    },
    {
      "constant": false,
      "inputs": [],
      "name": "newDaySettings",
      "outputs": [],
      "payable": false,
      "stateMutability": "nonpayable",
      "type": "function",
      "signature": "0x1a5a9c00"
    },
    {
      "constant": false,
      "inputs": [
        {
          "name": "day",
          "type": "uint256"
        }
      ],
      "name": "generateNewDay",
      "outputs": [],
      "payable": false,
      "stateMutability": "nonpayable",
      "type": "function",
      "signature": "0x2cc681af"
    }
  ],
  "bytecode": "0x608060405260a0604051908101604052806103e861ffff1681526020016107d061ffff168152602001610bb861ffff168152602001610fa061ffff16815260200161138861ffff1681525060039060056200005c9291906200007b565b50600060065560006011553480156200007457600080fd5b50620000fb565b828054828255906000526020600020908101928215620000c0579160200282015b82811115620000bf578251829061ffff169055916020019190600101906200009c565b5b509050620000cf9190620000d3565b5090565b620000f891905b80821115620000f4576000816000905550600101620000da565b5090565b90565b614880806200010b6000396000f3fe6080604052600436106200013f576000357c0100000000000000000000000000000000000000000000000000000000900463ffffffff16806312065fe014620001445780631a5a9c00146200017257806325e3d69f146200018c5780632986c0e514620001df5780632cc681af146200020d578063389f6189146200024c5780633bf21b6514620002a65780633ccfd60b14620004c757806359318cdc14620004e15780635c9302c914620005775780638561719414620005a5578063887d8e27146200067e5780639584a9fc14620006fd578063a035b1fe1462000757578063b6ab43e61462000785578063bc31c1c114620007d8578063ca710706146200082b578063cb0304571462000859578063d0e30db014620009e0578063e4d65d5414620009ec578063ea2b4ee21462000a81578063f7e309c51462000b20575b600080fd5b3480156200015157600080fd5b506200015c62000b52565b6040518082815260200191505060405180910390f35b3480156200017f57600080fd5b506200018a62000b99565b005b3480156200019957600080fd5b50620001c960048036036020811015620001b257600080fd5b810190808035906020019092919050505062000c2f565b6040518082815260200191505060405180910390f35b348015620001ec57600080fd5b50620001f762000c4a565b6040518082815260200191505060405180910390f35b3480156200021a57600080fd5b506200024a600480360360208110156200023357600080fd5b810190808035906020019092919050505062000c50565b005b3480156200025957600080fd5b506200026462001389565b604051808273ffffffffffffffffffffffffffffffffffffffff1673ffffffffffffffffffffffffffffffffffffffff16815260200191505060405180910390f35b348015620002b357600080fd5b50620004c5600480360360c0811015620002cc57600080fd5b810190808035906020019092919080359060200190640100000000811115620002f457600080fd5b8201836020820111156200030757600080fd5b803590602001918460018302840111640100000000831117156200032a57600080fd5b91908080601f016020809104026020016040519081016040528093929190818152602001838380828437600081840152601f19601f820116905080830192505050505050509192919290803590602001906401000000008111156200038e57600080fd5b820183602082011115620003a157600080fd5b80359060200191846001830284011164010000000083111715620003c457600080fd5b91908080601f016020809104026020016040519081016040528093929190818152602001838380828437600081840152601f19601f820116905080830192505050505050509192919290803590602001906401000000008111156200042857600080fd5b8201836020820111156200043b57600080fd5b803590602001918460018302840111640100000000831117156200045e57600080fd5b91908080601f016020809104026020016040519081016040528093929190818152602001838380828437600081840152601f19601f8201169050808301925050505050505091929192908035906020019092919080359060200190929190505050620013c6565b005b348015620004d457600080fd5b50620004df62001809565b005b348015620004ee57600080fd5b506200051e600480360360208110156200050757600080fd5b8101908080359060200190929190505050620018d7565b6040518080602001828103825283818151815260200191508051906020019060200280838360005b838110156200056357808201518184015260208101905062000546565b505050509050019250505060405180910390f35b3480156200058457600080fd5b506200058f6200197a565b6040518082815260200191505060405180910390f35b348015620005b257600080fd5b506200067c60048036036040811015620005cb57600080fd5b810190808035906020019092919080359060200190640100000000811115620005f357600080fd5b8201836020820111156200060657600080fd5b803590602001918460018302840111640100000000831117156200062957600080fd5b91908080601f016020809104026020016040519081016040528093929190818152602001838380828437600081840152601f19601f82011690508083019250505050505050919291929050505062001980565b005b3480156200068b57600080fd5b50620006bb60048036036020811015620006a457600080fd5b81019080803590602001909291905050506200209f565b604051808273ffffffffffffffffffffffffffffffffffffffff1673ffffffffffffffffffffffffffffffffffffffff16815260200191505060405180910390f35b3480156200070a57600080fd5b5062000715620020d2565b604051808273ffffffffffffffffffffffffffffffffffffffff1673ffffffffffffffffffffffffffffffffffffffff16815260200191505060405180910390f35b3480156200076457600080fd5b506200076f62002138565b6040518082815260200191505060405180910390f35b3480156200079257600080fd5b50620007c260048036036020811015620007ab57600080fd5b81019080803590602001909291905050506200213e565b6040518082815260200191505060405180910390f35b348015620007e557600080fd5b506200081560048036036020811015620007fe57600080fd5b810190808035906020019092919050505062002159565b6040518082815260200191505060405180910390f35b3480156200083857600080fd5b50620008436200217d565b6040518082815260200191505060405180910390f35b3480156200086657600080fd5b50620009de600480360360a08110156200087f57600080fd5b81019080803590602001906401000000008111156200089d57600080fd5b820183602082011115620008b057600080fd5b80359060200191846001830284011164010000000083111715620008d357600080fd5b91908080601f016020809104026020016040519081016040528093929190818152602001838380828437600081840152601f19601f820116905080830192505050505050509192919290803590602001906401000000008111156200093757600080fd5b8201836020820111156200094a57600080fd5b803590602001918460018302840111640100000000831117156200096d57600080fd5b91908080601f016020809104026020016040519081016040528093929190818152602001838380828437600081840152601f19601f82011690508083019250505050505050919291929080359060200190929190803590602001909291908035906020019092919050505062002183565b005b620009ea6200284e565b005b348015620009f957600080fd5b5062000a3f6004803603602081101562000a1257600080fd5b81019080803573ffffffffffffffffffffffffffffffffffffffff1690602001909291905050506200289d565b604051808273ffffffffffffffffffffffffffffffffffffffff1673ffffffffffffffffffffffffffffffffffffffff16815260200191505060405180910390f35b34801562000a8e57600080fd5b5062000abe6004803603602081101562000aa757600080fd5b8101908080359060200190929190505050620028d0565b604051808681526020018581526020018481526020018373ffffffffffffffffffffffffffffffffffffffff1673ffffffffffffffffffffffffffffffffffffffff168152602001821515151581526020019550505050505060405180910390f35b34801562000b2d57600080fd5b5062000b3862002943565b604051808215151515815260200191505060405180910390f35b6000600260003373ffffffffffffffffffffffffffffffffffffffff1673ffffffffffffffffffffffffffffffffffffffff16815260200190815260200160002054905090565b60008090505b600581101562000c14576004600060038381548110151562000bbd57fe5b9060005260206000200154815260200190815260200160002080549050600c8260058110151562000bea57fe5b0181905550600060078260058110151562000c0157fe5b0181905550808060010191505062000b9f565b50600060118190555060006013819055506000601481905550565b600c8160058110151562000c3f57fe5b016000915090505481565b60145481565b8060068190555062000c6162003217565b604051809103906000f08015801562000c7e573d6000803e3d6000fd5b5060016000600654815260200190815260200160002060006101000a81548173ffffffffffffffffffffffffffffffffffffffff021916908373ffffffffffffffffffffffffffffffffffffffff16021790555060008090505b600580549050811015620013755760058181548110151562000cf657fe5b906000526020600020906004020160030160149054906101000a900460ff161562000dfa576004600060058381548110151562000d2f57fe5b906000526020600020906004020160000154815260200190815260200160002060058281548110151562000d5f57fe5b906000526020600020906004020160030160009054906101000a900473ffffffffffffffffffffffffffffffffffffffff1690806001815401808255809150509060018203906000526020600020016000909192909190916101000a81548173ffffffffffffffffffffffffffffffffffffffff021916908373ffffffffffffffffffffffffffffffffffffffff1602179055505062001367565b60058181548110151562000e0a57fe5b90600052602060002090600402016000015460058281548110151562000e2c57fe5b9060005260206000209060040201600101541415156200136657600060058281548110151562000e5857fe5b906000526020600020906004020160020154111562000f4b576004600060058381548110151562000e8557fe5b906000526020600020906004020160000154815260200190815260200160002060058281548110151562000eb557fe5b906000526020600020906004020160030160009054906101000a900473ffffffffffffffffffffffffffffffffffffffff1690806001815401808255809150509060018203906000526020600020016000909192909190916101000a81548173ffffffffffffffffffffffffffffffffffffffff021916908373ffffffffffffffffffffffffffffffffffffffff160217905550505b60008090505b6004600060058481548110151562000f6557fe5b906000526020600020906004020160010154815260200190815260200160002080549050811015620013645760058281548110151562000fa157fe5b906000526020600020906004020160030160009054906101000a900473ffffffffffffffffffffffffffffffffffffffff1673ffffffffffffffffffffffffffffffffffffffff166004600060058581548110151562000ffd57fe5b9060005260206000209060040201600101548152602001908152602001600020828154811015156200102b57fe5b9060005260206000200160009054906101000a900473ffffffffffffffffffffffffffffffffffffffff1673ffffffffffffffffffffffffffffffffffffffff16141562001356576000600460006005858154811015156200108957fe5b906000526020600020906004020160010154815260200190815260200160002082815481101515620010b757fe5b9060005260206000200160009054906101000a900473ffffffffffffffffffffffffffffffffffffffff16905060046000600585815481101515620010f857fe5b90600052602060002090600402016001015481526020019081526020016000206001600460006005878154811015156200112e57fe5b906000526020600020906004020160010154815260200190815260200160002080549050038154811015156200116057fe5b9060005260206000200160009054906101000a900473ffffffffffffffffffffffffffffffffffffffff16600460006005868154811015156200119f57fe5b906000526020600020906004020160010154815260200190815260200160002083815481101515620011cd57fe5b9060005260206000200160006101000a81548173ffffffffffffffffffffffffffffffffffffffff021916908373ffffffffffffffffffffffffffffffffffffffff16021790555080600460006005868154811015156200122a57fe5b90600052602060002090600402016001015481526020019081526020016000206001600460006005888154811015156200126057fe5b906000526020600020906004020160010154815260200190815260200160002080549050038154811015156200129257fe5b9060005260206000200160006101000a81548173ffffffffffffffffffffffffffffffffffffffff021916908373ffffffffffffffffffffffffffffffffffffffff16021790555060046000600585815481101515620012ee57fe5b906000526020600020906004020160010154815260200190815260200160002080548015156200131a57fe5b6001900381819060005260206000200160006101000a81549073ffffffffffffffffffffffffffffffffffffffff021916905590555062001364565b808060010191505062000f51565b505b5b808060010191505062000cd8565b506005600062001386919062003228565b50565b600060016000600654815260200190815260200160002060009054906101000a900473ffffffffffffffffffffffffffffffffffffffff16905090565b600073ffffffffffffffffffffffffffffffffffffffff166000803373ffffffffffffffffffffffffffffffffffffffff1673ffffffffffffffffffffffffffffffffffffffff16815260200190815260200160002060009054906101000a900473ffffffffffffffffffffffffffffffffffffffff1673ffffffffffffffffffffffffffffffffffffffff161415156200146057600080fd5b600086338787878787620014736200324e565b808881526020018773ffffffffffffffffffffffffffffffffffffffff1673ffffffffffffffffffffffffffffffffffffffff168152602001806020018060200180602001868152602001858152602001848103845289818151815260200191508051906020019080838360005b83811015620014fe578082015181840152602081019050620014e1565b50505050905090810190601f1680156200152c5780820380516001836020036101000a031916815260200191505b50848103835288818151815260200191508051906020019080838360005b83811015620015675780820151818401526020810190506200154a565b50505050905090810190601f168015620015955780820380516001836020036101000a031916815260200191505b50848103825287818151815260200191508051906020019080838360005b83811015620015d0578082015181840152602081019050620015b3565b50505050905090810190601f168015620015fe5780820380516001836020036101000a031916815260200191505b509a5050505050505050505050604051809103906000f08015801562001628573d6000803e3d6000fd5b509050806000803373ffffffffffffffffffffffffffffffffffffffff1673ffffffffffffffffffffffffffffffffffffffff16815260200190815260200160002060006101000a81548173ffffffffffffffffffffffffffffffffffffffff021916908373ffffffffffffffffffffffffffffffffffffffff1602179055506001601260008373ffffffffffffffffffffffffffffffffffffffff1673ffffffffffffffffffffffffffffffffffffffff16815260200190815260200160002081905550600560a060405190810160405280600360008154811015156200170c57fe5b9060005260206000200154815260200160008152602001600181526020018373ffffffffffffffffffffffffffffffffffffffff168152602001600115158152509080600181540180825580915050906001820390600052602060002090600402016000909192909190915060008201518160000155602082015181600101556040820151816002015560608201518160030160006101000a81548173ffffffffffffffffffffffffffffffffffffffff021916908373ffffffffffffffffffffffffffffffffffffffff16021790555060808201518160030160146101000a81548160ff02191690831515021790555050505050505050505050565b3373ffffffffffffffffffffffffffffffffffffffff166108fc600260003373ffffffffffffffffffffffffffffffffffffffff1673ffffffffffffffffffffffffffffffffffffffff168152602001908152602001600020549081150290604051600060405180830381858888f193505050501580156200188f573d6000803e3d6000fd5b506000600260003373ffffffffffffffffffffffffffffffffffffffff1673ffffffffffffffffffffffffffffffffffffffff16815260200190815260200160002081905550565b6060600460008381526020019081526020016000208054806020026020016040519081016040528092919081815260200182805480156200196e57602002820191906000526020600020905b8160009054906101000a900473ffffffffffffffffffffffffffffffffffffffff1673ffffffffffffffffffffffffffffffffffffffff168152602001906001019080831162001923575b50505050509050919050565b60065481565b60065482141562001d0b5762001995620029ea565b1562001c71576000600460006003601354815481101515620019b357fe5b90600052602060002001548152602001908152602001600020601454815481101515620019dc57fe5b9060005260206000200160009054906101000a900473ffffffffffffffffffffffffffffffffffffffff16905060016000600654815260200190815260200160002060009054906101000a900473ffffffffffffffffffffffffffffffffffffffff1673ffffffffffffffffffffffffffffffffffffffff166391216ae23384846040518463ffffffff167c0100000000000000000000000000000000000000000000000000000000028152600401808473ffffffffffffffffffffffffffffffffffffffff1673ffffffffffffffffffffffffffffffffffffffff168152602001806020018373ffffffffffffffffffffffffffffffffffffffff1673ffffffffffffffffffffffffffffffffffffffff168152602001828103825284818151815260200191508051906020019080838360005b8381101562001b2e57808201518184015260208101905062001b11565b50505050905090810190601f16801562001b5c5780820380516001836020036101000a031916815260200191505b50945050505050600060405180830381600087803b15801562001b7e57600080fd5b505af115801562001b93573d6000803e3d6000fd5b5050505062001ba28162002eec565b62001c6a338273ffffffffffffffffffffffffffffffffffffffff1663f6783a9f6040518163ffffffff167c010000000000000000000000000000000000000000000000000000000002815260040160206040518083038186803b15801562001c0a57600080fd5b505afa15801562001c1f573d6000803e3d6000fd5b505050506040513d602081101562001c3657600080fd5b8101908080519060200190929190505050600360135481548110151562001c5957fe5b9060005260206000200154620030c0565b5062001d05565b6040517f08c379a00000000000000000000000000000000000000000000000000000000081526004018080602001828103825260288152602001807f4e6f20686179206e696e67756e207265736964656e746520636f6e20696e766981526020017f746163696f6e657300000000000000000000000000000000000000000000000081525060400191505060405180910390fd5b6200209b565b62001d168262000c50565b62001d2062000b99565b62001d2a620029ea565b156200200657600060046000600360135481548110151562001d4857fe5b9060005260206000200154815260200190815260200160002060145481548110151562001d7157fe5b9060005260206000200160009054906101000a900473ffffffffffffffffffffffffffffffffffffffff16905060016000600654815260200190815260200160002060009054906101000a900473ffffffffffffffffffffffffffffffffffffffff1673ffffffffffffffffffffffffffffffffffffffff166391216ae23384846040518463ffffffff167c0100000000000000000000000000000000000000000000000000000000028152600401808473ffffffffffffffffffffffffffffffffffffffff1673ffffffffffffffffffffffffffffffffffffffff168152602001806020018373ffffffffffffffffffffffffffffffffffffffff1673ffffffffffffffffffffffffffffffffffffffff168152602001828103825284818151815260200191508051906020019080838360005b8381101562001ec357808201518184015260208101905062001ea6565b50505050905090810190601f16801562001ef15780820380516001836020036101000a031916815260200191505b50945050505050600060405180830381600087803b15801562001f1357600080fd5b505af115801562001f28573d6000803e3d6000fd5b5050505062001f378162002eec565b62001fff338273ffffffffffffffffffffffffffffffffffffffff1663f6783a9f6040518163ffffffff167c010000000000000000000000000000000000000000000000000000000002815260040160206040518083038186803b15801562001f9f57600080fd5b505afa15801562001fb4573d6000803e3d6000fd5b505050506040513d602081101562001fcb57600080fd5b8101908080519060200190929190505050600360135481548110151562001fee57fe5b9060005260206000200154620030c0565b506200209a565b6040517f08c379a00000000000000000000000000000000000000000000000000000000081526004018080602001828103825260348152602001807f4e6f20686179206e696e67756e207265736964656e746520636f6e20696e766981526020017f746163696f6e65732028646961206e7565766f2900000000000000000000000081525060400191505060405180910390fd5b5b5050565b60016020528060005260406000206000915054906101000a900473ffffffffffffffffffffffffffffffffffffffff1681565b60008060003373ffffffffffffffffffffffffffffffffffffffff1673ffffffffffffffffffffffffffffffffffffffff16815260200190815260200160002060009054906101000a900473ffffffffffffffffffffffffffffffffffffffff16905090565b60135481565b6007816005811015156200214e57fe5b016000915090505481565b6003818154811015156200216957fe5b906000526020600020016000915090505481565b60115481565b60008060003373ffffffffffffffffffffffffffffffffffffffff1673ffffffffffffffffffffffffffffffffffffffff16815260200190815260200160002060009054906101000a900473ffffffffffffffffffffffffffffffffffffffff1690508073ffffffffffffffffffffffffffffffffffffffff1663ec07c2d187836040518363ffffffff167c010000000000000000000000000000000000000000000000000000000002815260040180806020018373ffffffffffffffffffffffffffffffffffffffff1673ffffffffffffffffffffffffffffffffffffffff168152602001828103825284818151815260200191508051906020019080838360005b83811015620022a357808201518184015260208101905062002286565b50505050905090810190601f168015620022d15780820380516001836020036101000a031916815260200191505b509350505050600060405180830381600087803b158015620022f257600080fd5b505af115801562002307573d6000803e3d6000fd5b505050508073ffffffffffffffffffffffffffffffffffffffff1663cdf2ac3486836040518363ffffffff167c010000000000000000000000000000000000000000000000000000000002815260040180806020018373ffffffffffffffffffffffffffffffffffffffff1673ffffffffffffffffffffffffffffffffffffffff168152602001828103825284818151815260200191508051906020019080838360005b83811015620023c8578082015181840152602081019050620023ab565b50505050905090810190601f168015620023f65780820380516001836020036101000a031916815260200191505b509350505050600060405180830381600087803b1580156200241757600080fd5b505af11580156200242c573d6000803e3d6000fd5b505050508073ffffffffffffffffffffffffffffffffffffffff1663cae25dcd85836040518363ffffffff167c0100000000000000000000000000000000000000000000000000000000028152600401808381526020018273ffffffffffffffffffffffffffffffffffffffff1673ffffffffffffffffffffffffffffffffffffffff16815260200192505050600060405180830381600087803b158015620024d457600080fd5b505af1158015620024e9573d6000803e3d6000fd5b5050505060008173ffffffffffffffffffffffffffffffffffffffff166398d5fdca6040518163ffffffff167c010000000000000000000000000000000000000000000000000000000002815260040160206040518083038186803b1580156200255257600080fd5b505afa15801562002567573d6000803e3d6000fd5b505050506040513d60208110156200257e57600080fd5b810190808051906020019092919050505090508173ffffffffffffffffffffffffffffffffffffffff1663485f476785846040518363ffffffff167c0100000000000000000000000000000000000000000000000000000000028152600401808381526020018273ffffffffffffffffffffffffffffffffffffffff1673ffffffffffffffffffffffffffffffffffffffff16815260200192505050600060405180830381600087803b1580156200263557600080fd5b505af11580156200264a573d6000803e3d6000fd5b505050508173ffffffffffffffffffffffffffffffffffffffff166347ab6d4b84846040518363ffffffff167c0100000000000000000000000000000000000000000000000000000000028152600401808381526020018273ffffffffffffffffffffffffffffffffffffffff1673ffffffffffffffffffffffffffffffffffffffff16815260200192505050600060405180830381600087803b158015620026f257600080fd5b505af115801562002707573d6000803e3d6000fd5b5050505082601260008473ffffffffffffffffffffffffffffffffffffffff1673ffffffffffffffffffffffffffffffffffffffff16815260200190815260200160002081905550600560a0604051908101604052808681526020018381526020018581526020018473ffffffffffffffffffffffffffffffffffffffff168152602001600015158152509080600181540180825580915050906001820390600052602060002090600402016000909192909190915060008201518160000155602082015181600101556040820151816002015560608201518160030160006101000a81548173ffffffffffffffffffffffffffffffffffffffff021916908373ffffffffffffffffffffffffffffffffffffffff16021790555060808201518160030160146101000a81548160ff02191690831515021790555050505050505050505050565b34600260003373ffffffffffffffffffffffffffffffffffffffff1673ffffffffffffffffffffffffffffffffffffffff16815260200190815260200160002060008282540192505081905550565b60006020528060005260406000206000915054906101000a900473ffffffffffffffffffffffffffffffffffffffff1681565b600581815481101515620028e057fe5b90600052602060002090600402016000915090508060000154908060010154908060020154908060030160009054906101000a900473ffffffffffffffffffffffffffffffffffffffff16908060030160149054906101000a900460ff16905085565b60008073ffffffffffffffffffffffffffffffffffffffff166000803373ffffffffffffffffffffffffffffffffffffffff1673ffffffffffffffffffffffffffffffffffffffff16815260200190815260200160002060009054906101000a900473ffffffffffffffffffffffffffffffffffffffff1673ffffffffffffffffffffffffffffffffffffffff161415620029e25760009050620029e7565b600190505b90565b60008060115490505b600581101562002ee3576000600c8260058110151562002a0f57fe5b0154111562002eca57600060078260058110151562002a2a57fe5b015490505b60078260058110151562002a3f57fe5b01546004600060038581548110151562002a5557fe5b90600052602060002001548152602001908152602001600020805490500181101562002ec35760006004600060038581548110151562002a9157fe5b906000526020600020015481526020019081526020016000206004600060038681548110151562002abe57fe5b90600052602060002001548152602001908152602001600020805490508381151562002ae657fe5b0681548110151562002af457fe5b9060005260206000200160009054906101000a900473ffffffffffffffffffffffffffffffffffffffff1690506001806000600654815260200190815260200160002060009054906101000a900473ffffffffffffffffffffffffffffffffffffffff1673ffffffffffffffffffffffffffffffffffffffff1663f010df7c836040518263ffffffff167c0100000000000000000000000000000000000000000000000000000000028152600401808273ffffffffffffffffffffffffffffffffffffffff1673ffffffffffffffffffffffffffffffffffffffff16815260200191505060206040518083038186803b15801562002bf157600080fd5b505afa15801562002c06573d6000803e3d6000fd5b505050506040513d602081101562002c1d57600080fd5b8101908080519060200190929190505050601260008473ffffffffffffffffffffffffffffffffffffffff1673ffffffffffffffffffffffffffffffffffffffff1681526020019081526020016000205403111562002ccd57826013819055506004600060038581548110151562002c9157fe5b90600052602060002001548152602001908152602001600020805490508281151562002cb957fe5b066014819055506001935050505062002ee9565b6001806000600654815260200190815260200160002060009054906101000a900473ffffffffffffffffffffffffffffffffffffffff1673ffffffffffffffffffffffffffffffffffffffff1663f010df7c836040518263ffffffff167c0100000000000000000000000000000000000000000000000000000000028152600401808273ffffffffffffffffffffffffffffffffffffffff1673ffffffffffffffffffffffffffffffffffffffff16815260200191505060206040518083038186803b15801562002d9d57600080fd5b505afa15801562002db2573d6000803e3d6000fd5b505050506040513d602081101562002dc957600080fd5b8101908080519060200190929190505050601260008473ffffffffffffffffffffffffffffffffffffffff1673ffffffffffffffffffffffffffffffffffffffff1681526020019081526020016000205403141562002eb457826013819055506004600060038581548110151562002e3d57fe5b90600052602060002001548152602001908152602001600020805490508281151562002e6557fe5b06601481905550600c8360058110151562002e7c57fe5b0160008154809291906001900391905055506001820160078460058110151562002ea257fe5b01819055506001935050505062002ee9565b50808060010191505062002a2f565b5062002ed5565b600181016011819055505b8080600101915050620029f3565b50600090505b90565b600060016000600654815260200190815260200160002060009054906101000a900473ffffffffffffffffffffffffffffffffffffffff1690508073ffffffffffffffffffffffffffffffffffffffff1663fd6373368360018473ffffffffffffffffffffffffffffffffffffffff1663f010df7c876040518263ffffffff167c0100000000000000000000000000000000000000000000000000000000028152600401808273ffffffffffffffffffffffffffffffffffffffff1673ffffffffffffffffffffffffffffffffffffffff16815260200191505060206040518083038186803b15801562002fdf57600080fd5b505afa15801562002ff4573d6000803e3d6000fd5b505050506040513d60208110156200300b57600080fd5b8101908080519060200190929190505050016040518363ffffffff167c0100000000000000000000000000000000000000000000000000000000028152600401808373ffffffffffffffffffffffffffffffffffffffff1673ffffffffffffffffffffffffffffffffffffffff16815260200182815260200192505050600060405180830381600087803b158015620030a357600080fd5b505af1158015620030b8573d6000803e3d6000fd5b505050505050565b80600260008573ffffffffffffffffffffffffffffffffffffffff1673ffffffffffffffffffffffffffffffffffffffff168152602001908152602001600020541015151562003178576040517f08c379a00000000000000000000000000000000000000000000000000000000081526004018080602001828103825260128152602001807f53616c646f20696e737566696369656e7465000000000000000000000000000081525060200191505060405180910390fd5b80600260008573ffffffffffffffffffffffffffffffffffffffff1673ffffffffffffffffffffffffffffffffffffffff1681526020019081526020016000206000828254039250508190555080600260008473ffffffffffffffffffffffffffffffffffffffff1673ffffffffffffffffffffffffffffffffffffffff16815260200190815260200160002060008282540192505081905550505050565b60405161081780620032d583390190565b50805460008255600402906000526020600020908101906200324b91906200325f565b50565b604051610d698062003aec83390190565b620032d191905b80821115620032cd57600080820160009055600182016000905560028201600090556003820160006101000a81549073ffffffffffffffffffffffffffffffffffffffff02191690556003820160146101000a81549060ff02191690555060040162003266565b5090565b9056fe608060405234801561001057600080fd5b506107f7806100206000396000f3fe60806040526004361061006d576000357c0100000000000000000000000000000000000000000000000000000000900463ffffffff16806358f43f76146100725780637b5253181461016f57806391216ae214610239578063f010df7c14610341578063fd637336146103a6575b600080fd5b34801561007e57600080fd5b506100c16004803603602081101561009557600080fd5b81019080803573ffffffffffffffffffffffffffffffffffffffff169060200190929190505050610401565b604051808373ffffffffffffffffffffffffffffffffffffffff1673ffffffffffffffffffffffffffffffffffffffff16815260200180602001828103825283818151815260200191508051906020019080838360005b83811015610133578082015181840152602081019050610118565b50505050905090810190601f1680156101605780820380516001836020036101000a031916815260200191505b50935050505060405180910390f35b34801561017b57600080fd5b506101be6004803603602081101561019257600080fd5b81019080803573ffffffffffffffffffffffffffffffffffffffff1690602001909291905050506104dd565b6040518080602001828103825283818151815260200191508051906020019080838360005b838110156101fe5780820151818401526020810190506101e3565b50505050905090810190601f16801561022b5780820380516001836020036101000a031916815260200191505b509250505060405180910390f35b34801561024557600080fd5b5061033f6004803603606081101561025c57600080fd5b81019080803573ffffffffffffffffffffffffffffffffffffffff1690602001909291908035906020019064010000000081111561029957600080fd5b8201836020820111156102ab57600080fd5b803590602001918460018302840111640100000000831117156102cd57600080fd5b91908080601f016020809104026020016040519081016040528093929190818152602001838380828437600081840152601f19601f820116905080830192505050505050509192919290803573ffffffffffffffffffffffffffffffffffffffff1690602001909291905050506105c1565b005b34801561034d57600080fd5b506103906004803603602081101561036457600080fd5b81019080803573ffffffffffffffffffffffffffffffffffffffff169060200190929190505050610697565b6040518082815260200191505060405180910390f35b3480156103b257600080fd5b506103ff600480360360408110156103c957600080fd5b81019080803573ffffffffffffffffffffffffffffffffffffffff169060200190929190803590602001909291905050506106df565b005b60016020528060005260406000206000915090508060000160009054906101000a900473ffffffffffffffffffffffffffffffffffffffff1690806001018054600181600116156101000203166002900480601f0160208091040260200160405190810160405280929190818152602001828054600181600116156101000203166002900480156104d35780601f106104a8576101008083540402835291602001916104d3565b820191906000526020600020905b8154815290600101906020018083116104b657829003601f168201915b5050505050905082565b6060600160008373ffffffffffffffffffffffffffffffffffffffff1673ffffffffffffffffffffffffffffffffffffffff1681526020019081526020016000206001018054600181600116156101000203166002900480601f0160208091040260200160405190810160405280929190818152602001828054600181600116156101000203166002900480156105b55780601f1061058a576101008083540402835291602001916105b5565b820191906000526020600020905b81548152906001019060200180831161059857829003601f168201915b50505050509050919050565b60408051908101604052808273ffffffffffffffffffffffffffffffffffffffff16815260200183815250600160008573ffffffffffffffffffffffffffffffffffffffff1673ffffffffffffffffffffffffffffffffffffffff16815260200190815260200160002060008201518160000160006101000a81548173ffffffffffffffffffffffffffffffffffffffff021916908373ffffffffffffffffffffffffffffffffffffffff160217905550602082015181600101908051906020019061068e929190610726565b50905050505050565b60008060008373ffffffffffffffffffffffffffffffffffffffff1673ffffffffffffffffffffffffffffffffffffffff168152602001908152602001600020549050919050565b806000808473ffffffffffffffffffffffffffffffffffffffff1673ffffffffffffffffffffffffffffffffffffffff168152602001908152602001600020819055505050565b828054600181600116156101000203166002900490600052602060002090601f016020900481019282601f1061076757805160ff1916838001178555610795565b82800160010185558215610795579182015b82811115610794578251825591602001919060010190610779565b5b5090506107a291906107a6565b5090565b6107c891905b808211156107c45760008160009055506001016107ac565b5090565b9056fea165627a7a72305820833ded70eeb8458be3428cd09749a9909f83308604cb2385af211e4f58633701002960806040523480156200001157600080fd5b5060405162000d6938038062000d69833981018060405260e08110156200003757600080fd5b81019080805190602001909291908051906020019092919080516401000000008111156200006457600080fd5b828101905060208101848111156200007b57600080fd5b81518560018202830111640100000000821117156200009957600080fd5b50509291906020018051640100000000811115620000b657600080fd5b82810190506020810184811115620000cd57600080fd5b8151856001820283011164010000000082111715620000eb57600080fd5b505092919060200180516401000000008111156200010857600080fd5b828101905060208101848111156200011f57600080fd5b81518560018202830111640100000000821117156200013d57600080fd5b505092919060200180519060200190929190805190602001909291905050508460009080519060200190620001749291906200020a565b5083600190805190602001906200018d9291906200020a565b508260029080519060200190620001a69291906200020a565b5081600381905550806005819055508660048190555085600660006101000a81548173ffffffffffffffffffffffffffffffffffffffff021916908373ffffffffffffffffffffffffffffffffffffffff16021790555050505050505050620002b9565b828054600181600116156101000203166002900490600052602060002090601f016020900481019282601f106200024d57805160ff19168380011785556200027e565b828001600101855582156200027e579182015b828111156200027d57825182559160200191906001019062000260565b5b5090506200028d919062000291565b5090565b620002b691905b80821115620002b257600081600090555060010162000298565b5090565b90565b610aa080620002c96000396000f3fe6080604052600436106100ba576000357c0100000000000000000000000000000000000000000000000000000000900463ffffffff16806316845714146100bf57806317d7de7c146100ea57806347ab6d4b1461017a578063485f4767146101d55780637e79e8ba146102305780638863bab0146102c057806398d5fdca146102eb578063cae25dcd14610316578063cdf2ac3414610371578063ea87963414610459578063ec07c2d1146104e9578063f6783a9f146105d1575b600080fd5b3480156100cb57600080fd5b506100d4610628565b6040518082815260200191505060405180910390f35b3480156100f657600080fd5b506100ff610632565b6040518080602001828103825283818151815260200191508051906020019080838360005b8381101561013f578082015181840152602081019050610124565b50505050905090810190601f16801561016c5780820380516001836020036101000a031916815260200191505b509250505060405180910390f35b34801561018657600080fd5b506101d36004803603604081101561019d57600080fd5b8101908080359060200190929190803573ffffffffffffffffffffffffffffffffffffffff1690602001909291905050506106d4565b005b3480156101e157600080fd5b5061022e600480360360408110156101f857600080fd5b8101908080359060200190929190803573ffffffffffffffffffffffffffffffffffffffff169060200190929190505050610719565b005b34801561023c57600080fd5b5061024561075e565b6040518080602001828103825283818151815260200191508051906020019080838360005b8381101561028557808201518184015260208101905061026a565b50505050905090810190601f1680156102b25780820380516001836020036101000a031916815260200191505b509250505060405180910390f35b3480156102cc57600080fd5b506102d5610800565b6040518082815260200191505060405180910390f35b3480156102f757600080fd5b5061030061080a565b6040518082815260200191505060405180910390f35b34801561032257600080fd5b5061036f6004803603604081101561033957600080fd5b8101908080359060200190929190803573ffffffffffffffffffffffffffffffffffffffff169060200190929190505050610814565b005b34801561037d57600080fd5b506104576004803603604081101561039457600080fd5b81019080803590602001906401000000008111156103b157600080fd5b8201836020820111156103c357600080fd5b803590602001918460018302840111640100000000831117156103e557600080fd5b91908080601f016020809104026020016040519081016040528093929190818152602001838380828437600081840152601f19601f820116905080830192505050505050509192919290803573ffffffffffffffffffffffffffffffffffffffff169060200190929190505050610859565b005b34801561046557600080fd5b5061046e6108ae565b6040518080602001828103825283818151815260200191508051906020019080838360005b838110156104ae578082015181840152602081019050610493565b50505050905090810190601f1680156104db5780820380516001836020036101000a031916815260200191505b509250505060405180910390f35b3480156104f557600080fd5b506105cf6004803603604081101561050c57600080fd5b810190808035906020019064010000000081111561052957600080fd5b82018360208201111561053b57600080fd5b8035906020019184600183028401116401000000008311171561055d57600080fd5b91908080601f016020809104026020016040519081016040528093929190818152602001838380828437600081840152601f19601f820116905080830192505050505050509192919290803573ffffffffffffffffffffffffffffffffffffffff169060200190929190505050610950565b005b3480156105dd57600080fd5b506105e66109a5565b604051808273ffffffffffffffffffffffffffffffffffffffff1673ffffffffffffffffffffffffffffffffffffffff16815260200191505060405180910390f35b6000600554905090565b606060008054600181600116156101000203166002900480601f0160208091040260200160405190810160405280929190818152602001828054600181600116156101000203166002900480156106ca5780601f1061069f576101008083540402835291602001916106ca565b820191906000526020600020905b8154815290600101906020018083116106ad57829003601f168201915b5050505050905090565b3073ffffffffffffffffffffffffffffffffffffffff168173ffffffffffffffffffffffffffffffffffffffff1614151561070e57600080fd5b816005819055505050565b3073ffffffffffffffffffffffffffffffffffffffff168173ffffffffffffffffffffffffffffffffffffffff1614151561075357600080fd5b816004819055505050565b606060018054600181600116156101000203166002900480601f0160208091040260200160405190810160405280929190818152602001828054600181600116156101000203166002900480156107f65780601f106107cb576101008083540402835291602001916107f6565b820191906000526020600020905b8154815290600101906020018083116107d957829003601f168201915b5050505050905090565b6000600354905090565b6000600454905090565b3073ffffffffffffffffffffffffffffffffffffffff168173ffffffffffffffffffffffffffffffffffffffff1614151561084e57600080fd5b816003819055505050565b3073ffffffffffffffffffffffffffffffffffffffff168173ffffffffffffffffffffffffffffffffffffffff1614151561089357600080fd5b81600190805190602001906108a99291906109cf565b505050565b606060028054600181600116156101000203166002900480601f0160208091040260200160405190810160405280929190818152602001828054600181600116156101000203166002900480156109465780601f1061091b57610100808354040283529160200191610946565b820191906000526020600020905b81548152906001019060200180831161092957829003601f168201915b5050505050905090565b3073ffffffffffffffffffffffffffffffffffffffff168173ffffffffffffffffffffffffffffffffffffffff1614151561098a57600080fd5b81600090805190602001906109a09291906109cf565b505050565b6000600660009054906101000a900473ffffffffffffffffffffffffffffffffffffffff16905090565b828054600181600116156101000203166002900490600052602060002090601f016020900481019282601f10610a1057805160ff1916838001178555610a3e565b82800160010185558215610a3e579182015b82811115610a3d578251825591602001919060010190610a22565b5b509050610a4b9190610a4f565b5090565b610a7191905b80821115610a6d576000816000905550600101610a55565b5090565b9056fea165627a7a7230582016a95222a2949d67dd716dd8fd9728e7dc6956b0f7cf89d866dfbc4bc615b7940029a165627a7a7230582097973f15183048e011e8a956f2cd95087d54774a704a270d654175a81e8c6c130029",
  "source": "pragma solidity >=0.4.17 <=0.6.0;\n\ncontract MadridCentral {\n    \n    struct NewResident {\n        uint new_price;\n        uint old_price;\n        uint invitations;\n        address addr;\n        bool isNew;\n    }\n    \n    // permanentes\n    mapping (address => Resident) public residents;\n    mapping (uint => Day) public dayContracts;\n    mapping (address => uint) private balances;\n    uint[] public prices = [1000, 2000, 3000, 4000, 5000];\n    \n    // temporales\n    mapping (uint => Resident[]) private invitationsPerPrice;\n    NewResident[] public newResidents;\n    uint public currentDay = 0;\n    uint[5] public pointers;\n    uint[5] public lengths;\n    uint public currentDayPriceIndex = 0;\n    mapping (address => uint) private invitationsPerResident;\n    \n    //solo para el metodo \n    uint public price;\n    uint public index;\n    \n    function getInvitationsForPrice(uint p) public view returns (Resident[] memory){\n        return invitationsPerPrice[p];\n    }\n    \n    function addResident(uint initialPrice, string memory name, string memory email, string memory code, uint phone, uint n_invitations) public {\n        require(address(residents[msg.sender]) == address(0x0));\n        Resident resident = new Resident(initialPrice, msg.sender, name, email, code, phone, n_invitations );\n        residents[msg.sender] = resident;\n        invitationsPerResident[address(resident)] = 1;\n        newResidents.push(NewResident(prices[0], 0, 1, address(resident), true));\n    }\n    \n    function changeResidentData(string memory name, string memory email, uint phone, uint newPrice, uint nInvitations) public {\n        Resident resident = residents[msg.sender];\n        resident.setName(name, address(resident));\n        resident.setEmail(email, address(resident));\n        resident.setPhone(phone, address(resident));\n        uint oldPrice = resident.getPrice();\n        resident.setPrice(newPrice, address(resident));\n        resident.setInvitations(nInvitations, address(resident));\n        invitationsPerResident[address(resident)] = nInvitations;\n        newResidents.push(NewResident(newPrice, oldPrice, nInvitations, address(resident), false));\n    }\n\n    function getResidentAddress() public view returns (address) {\n        return address(residents[msg.sender]);\n    }\n\n    function getTodayAddress() public view returns (address) {\n        return address(dayContracts[currentDay]);\n    }\n    \n    function residentExists() public view returns (bool) {\n        if (address(residents[msg.sender]) == address(0x0)) {\n            return false;\n        }\n        return true;\n    }\n    \n    function deposit() public payable {\n        balances[msg.sender] += msg.value;\n    } \n    \n    function withdraw() public {\n        msg.sender.transfer(balances[msg.sender]);\n        balances[msg.sender] = 0;\n    }\n    \n    function getBalance() public view returns (uint) {\n        return balances[msg.sender];\n    }\n    \n    function transfer(address sender, address receiver, uint amount) private {\n        require( balances[sender] >= amount, \"Saldo insuficiente\");\n        balances[sender] -= amount;\n        balances[receiver] += amount;\n    }\n    \n    function spendInvitation(Resident resident) private {\n        Day day_n = dayContracts[currentDay];\n        day_n.setSpentInvitations(address(resident), day_n.getSpentInvitations(address(resident)) + 1);\n    }\n    \n    function lookForResident() private returns (bool) {\n        for (uint i = currentDayPriceIndex; i < 5; i++) {\n            if (lengths[i] > 0) {\n                for (uint j = pointers[i]; j < invitationsPerPrice[prices[i]].length + pointers[i]; j++) {\n                    address residentAddress = address(invitationsPerPrice[prices[i]][j % invitationsPerPrice[prices[i]].length]);\n                    if (invitationsPerResident[residentAddress] - dayContracts[currentDay].getSpentInvitations(residentAddress) > 1) {\n                        price = i;\n                        index = j % invitationsPerPrice[prices[i]].length;\n                        return true;\n                    } else if (invitationsPerResident[residentAddress] - dayContracts[currentDay].getSpentInvitations(residentAddress) == 1) {\n                        price = i;\n                        index = j % invitationsPerPrice[prices[i]].length;\n                        lengths[i]--;\n                        pointers[i] = j + 1;\n                        return true;\n                    }\n                }\n            } else {\n                currentDayPriceIndex = i + 1;\n            }\n        }\n        return false;\n    }\n    \n    function getInvitation(uint day, string memory matricula) public {\n        if (day == currentDay) {\n            if (lookForResident()) {\n                Resident resident = invitationsPerPrice[prices[price]][index];\n                dayContracts[currentDay].newInvitation(msg.sender, matricula, resident);\n                spendInvitation(resident);\n                transfer(msg.sender, resident.getPersonalAddress(), prices[price]);\n            } else {\n                revert(\"No hay ningun residente con invitaciones\");\n            }\n        } else {\n            generateNewDay(day);\n            newDaySettings();\n            if (lookForResident()) {\n                Resident resident = invitationsPerPrice[prices[price]][index];\n                dayContracts[currentDay].newInvitation(msg.sender, matricula, resident);\n                spendInvitation(resident);\n                transfer(msg.sender, resident.getPersonalAddress(), prices[price]);\n            } else {\n                revert(\"No hay ningun residente con invitaciones (dia nuevo)\");\n            }\n        }\n    }\n    \n    function newDaySettings() public {\n        for (uint i = 0; i < 5; i++) {\n            lengths[i] = invitationsPerPrice[prices[i]].length;\n            pointers[i] = 0;\n        }\n        currentDayPriceIndex = 0;\n        price = 0;\n        index = 0;\n    }\n    \n    function generateNewDay(uint day) public {\n        currentDay = day;\n        dayContracts[currentDay] = new Day();\n        \n        for (uint i = 0; i < newResidents.length; i ++) {\n            if (newResidents[i].isNew) {\n                invitationsPerPrice[newResidents[i].new_price].push(Resident(newResidents[i].addr));\n            } else {\n                if (newResidents[i].old_price != newResidents[i].new_price) {\n                    if (newResidents[i].invitations > 0) {\n                        invitationsPerPrice[newResidents[i].new_price].push(Resident(newResidents[i].addr));\n                    }\n                    for (uint j = 0; j < invitationsPerPrice[newResidents[i].old_price].length; j++) {\n                        if (address(invitationsPerPrice[newResidents[i].old_price][j]) == newResidents[i].addr) {\n                            Resident a = invitationsPerPrice[newResidents[i].old_price][j];\n                            invitationsPerPrice[newResidents[i].old_price][j] = invitationsPerPrice[newResidents[i].old_price][invitationsPerPrice[newResidents[i].old_price].length - 1];\n                            invitationsPerPrice[newResidents[i].old_price][invitationsPerPrice[newResidents[i].old_price].length - 1] = a;\n                            invitationsPerPrice[newResidents[i].old_price].pop();\n                            break;\n                        }\n                    }\n                }\n            }\n        }\n        delete newResidents;\n    }\n}\n\ncontract Day {\n    \n    struct Invitation {\n        Resident resident;\n        string matricula;\n    }\n    \n    mapping (address => uint) private spentInvitations;\n    mapping (address => Invitation) public invitations;\n    \n    function newInvitation(address sender, string memory matricula, Resident resident) public {\n        invitations[sender] = Invitation(resident, matricula);\n    }\n\n    function getSpentInvitations(address addr) public view returns (uint) {\n        return spentInvitations[addr];\n    }\n\n    function getTodayInvitation(address sender) public view returns (string memory) {\n        return invitations[sender].matricula;\n    }\n\n    function setSpentInvitations(address addr, uint inv) public {\n        spentInvitations[addr] = inv;\n    }\n}\n\ncontract Resident {\n    string private name;\n    string private email;\n    string private code;\n    uint private phone;\n    uint private price;\n    uint private n_invitations;\n    address private personalAddress;\n    \n    constructor(uint p, address sender, string memory _name, string memory _email, string memory _code, uint _phone, uint _n_invitations) public {\n        name = _name;\n        email = _email;\n        code = _code;\n        phone = _phone;\n        n_invitations = _n_invitations;\n        price = p;\n        personalAddress = sender;\n    }\n    \n\n    function getPersonalAddress() public view returns (address) {\n        return personalAddress;\n    }\n    \n    function setName(string memory n, address sender) public {\n        require(sender == address(this));\n        name = n;\n    }\n\n    function getName() public view returns (string memory) {\n        return name;\n    }\n    \n    function setEmail(string memory e, address sender) public {\n        require(sender == address(this));\n        email = e;\n    }\n    \n    function getEmail() public view returns (string memory) {\n        return email;\n    }\n    \n    function setPhone(uint p, address sender) public {\n        require(sender == address(this));\n        phone = p;\n    }\n    \n    function getPhone() public view returns (uint) {\n        return phone;\n    }\n    \n    function getCode() public view returns (string memory) {\n        return code;\n    }\n    \n    function getPrice() public view returns (uint) {\n        return price;\n    }\n    \n    function setPrice(uint p, address sender) public {\n        require(sender == address(this));\n        price = p;\n    }\n    \n    function setInvitations(uint i, address sender) public {\n        require(sender == address(this));\n        n_invitations = i;\n    }\n    \n    function getInvitations() public view returns (uint) {\n        return n_invitations;\n    }\n    \n}",
  "sourcePath": "/Users/Rodri/Desktop/MadridCentralApp/contracts/MadridCentral.sol",
  "compiler": {
    "name": "solc",
    "version": "0.5.0+commit.1d4f565a.Emscripten.clang"
  },
  "schemaVersion": "3.0.2",
  "updatedAt": "2019-05-11T09:46:34.928Z",
  "devdoc": {
    "methods": {}
  },
  "userdoc": {
    "methods": {}
  }
}